{
  "_format": "hh-sol-artifact-1",
  "contractName": "Donation",
  "sourceName": "contracts/Donation.sol",
  "abi": [
    {
      "inputs": [],
      "stateMutability": "nonpayable",
      "type": "constructor"
    },
    {
      "inputs": [
        {
          "internalType": "address",
          "name": "target",
          "type": "address"
        }
      ],
      "name": "AddressEmptyCode",
      "type": "error"
    },
    {
      "inputs": [
        {
          "internalType": "address",
          "name": "account",
          "type": "address"
        }
      ],
      "name": "AddressInsufficientBalance",
      "type": "error"
    },
    {
      "inputs": [],
      "name": "DonationAmountTooLow",
      "type": "error"
    },
    {
      "inputs": [],
      "name": "FailedInnerCall",
      "type": "error"
    },
    {
      "inputs": [
        {
          "internalType": "uint256",
          "name": "required",
          "type": "uint256"
        },
        {
          "internalType": "uint256",
          "name": "available",
          "type": "uint256"
        }
      ],
      "name": "InsufficientAllowance",
      "type": "error"
    },
    {
      "inputs": [],
      "name": "InsufficientBalance",
      "type": "error"
    },
    {
      "inputs": [],
      "name": "InvalidAddress",
      "type": "error"
    },
    {
      "inputs": [
        {
          "internalType": "address",
          "name": "owner",
          "type": "address"
        }
      ],
      "name": "OwnableInvalidOwner",
      "type": "error"
    },
    {
      "inputs": [
        {
          "internalType": "address",
          "name": "account",
          "type": "address"
        }
      ],
      "name": "OwnableUnauthorizedAccount",
      "type": "error"
    },
    {
      "inputs": [],
      "name": "ReentrancyGuardReentrantCall",
      "type": "error"
    },
    {
      "inputs": [
        {
          "internalType": "address",
          "name": "token",
          "type": "address"
        }
      ],
      "name": "SafeERC20FailedOperation",
      "type": "error"
    },
    {
      "inputs": [],
      "name": "TokenAlreadyRegistered",
      "type": "error"
    },
    {
      "inputs": [],
      "name": "TokenNotRegistered",
      "type": "error"
    },
    {
      "inputs": [],
      "name": "TransferFailed",
      "type": "error"
    },
    {
      "inputs": [],
      "name": "ValueDoesNotMatch",
      "type": "error"
    },
    {
      "anonymous": false,
      "inputs": [
        {
          "indexed": true,
          "internalType": "uint256",
          "name": "storyId",
          "type": "uint256"
        },
        {
          "indexed": true,
          "internalType": "address",
          "name": "receiver",
          "type": "address"
        },
        {
          "indexed": true,
          "internalType": "address",
          "name": "sender",
          "type": "address"
        },
        {
          "indexed": false,
          "internalType": "bytes32",
          "name": "tokenSymbol",
          "type": "bytes32"
        },
        {
          "indexed": false,
          "internalType": "uint256",
          "name": "grossAmount",
          "type": "uint256"
        },
        {
          "indexed": false,
          "internalType": "uint256",
          "name": "serviceTips",
          "type": "uint256"
        }
      ],
      "name": "DonationMade",
      "type": "event"
    },
    {
      "anonymous": false,
      "inputs": [
        {
          "indexed": true,
          "internalType": "address",
          "name": "previousOwner",
          "type": "address"
        },
        {
          "indexed": true,
          "internalType": "address",
          "name": "newOwner",
          "type": "address"
        }
      ],
      "name": "OwnershipTransferred",
      "type": "event"
    },
    {
      "anonymous": false,
      "inputs": [
        {
          "indexed": true,
          "internalType": "bytes32",
          "name": "symbol",
          "type": "bytes32"
        },
        {
          "indexed": true,
          "internalType": "address",
          "name": "tokenAddress",
          "type": "address"
        }
      ],
      "name": "TokenAdded",
      "type": "event"
    },
    {
      "anonymous": false,
      "inputs": [
        {
          "indexed": true,
          "internalType": "bytes32",
          "name": "symbol",
          "type": "bytes32"
        }
      ],
      "name": "TokenRemoved",
      "type": "event"
    },
    {
      "inputs": [],
      "name": "NATIVE",
      "outputs": [
        {
          "internalType": "bytes32",
          "name": "",
          "type": "bytes32"
        }
      ],
      "stateMutability": "view",
      "type": "function"
    },
    {
      "inputs": [
        {
          "internalType": "bytes32",
          "name": "symbol",
          "type": "bytes32"
        },
        {
          "internalType": "address",
          "name": "tokenAddress",
          "type": "address"
        }
      ],
      "name": "addToken",
      "outputs": [],
      "stateMutability": "nonpayable",
      "type": "function"
    },
    {
      "inputs": [
        {
          "internalType": "bytes32",
          "name": "",
          "type": "bytes32"
        }
      ],
      "name": "allowedTokens",
      "outputs": [
        {
          "internalType": "contract IERC20",
          "name": "",
          "type": "address"
        }
      ],
      "stateMutability": "view",
      "type": "function"
    },
    {
      "inputs": [
        {
          "internalType": "bytes32",
          "name": "symbol",
          "type": "bytes32"
        }
      ],
      "name": "deleteToken",
      "outputs": [],
      "stateMutability": "nonpayable",
      "type": "function"
    },
    {
      "inputs": [
        {
          "internalType": "uint256",
          "name": "storyId",
          "type": "uint256"
        },
        {
          "internalType": "bytes32",
          "name": "symbol",
          "type": "bytes32"
        },
        {
          "internalType": "address",
          "name": "receiver",
          "type": "address"
        },
        {
          "internalType": "uint256",
          "name": "amount",
          "type": "uint256"
        },
        {
          "internalType": "uint256",
          "name": "tips",
          "type": "uint256"
        }
      ],
      "name": "donate",
      "outputs": [],
      "stateMutability": "payable",
      "type": "function"
    },
    {
      "inputs": [],
      "name": "owner",
      "outputs": [
        {
          "internalType": "address",
          "name": "",
          "type": "address"
        }
      ],
      "stateMutability": "view",
      "type": "function"
    },
    {
      "inputs": [],
      "name": "renounceOwnership",
      "outputs": [],
      "stateMutability": "nonpayable",
      "type": "function"
    },
    {
      "inputs": [
        {
          "internalType": "address",
          "name": "newOwner",
          "type": "address"
        }
      ],
      "name": "transferOwnership",
      "outputs": [],
      "stateMutability": "nonpayable",
      "type": "function"
    },
    {
      "inputs": [
        {
          "internalType": "address payable",
          "name": "to",
          "type": "address"
        },
        {
          "internalType": "uint256",
          "name": "amount",
          "type": "uint256"
        }
      ],
      "name": "withdrawNativeToken",
      "outputs": [],
      "stateMutability": "nonpayable",
      "type": "function"
    },
    {
      "inputs": [
        {
          "internalType": "bytes32",
          "name": "symbol",
          "type": "bytes32"
        },
        {
          "internalType": "address",
          "name": "to",
          "type": "address"
        },
        {
          "internalType": "uint256",
          "name": "amount",
          "type": "uint256"
        }
      ],
      "name": "withdrawToken",
      "outputs": [],
      "stateMutability": "nonpayable",
      "type": "function"
    },
    {
      "stateMutability": "payable",
      "type": "receive"
    }
  ],
  "bytecode": "0x608060405234801561001057600080fd5b5033600073ffffffffffffffffffffffffffffffffffffffff168173ffffffffffffffffffffffffffffffffffffffff16036100845760006040517f1e4fbdf700000000000000000000000000000000000000000000000000000000815260040161007b91906101a5565b60405180910390fd5b610093816100a060201b60201c565b50600180819055506101c0565b60008060009054906101000a900473ffffffffffffffffffffffffffffffffffffffff169050816000806101000a81548173ffffffffffffffffffffffffffffffffffffffff021916908373ffffffffffffffffffffffffffffffffffffffff1602179055508173ffffffffffffffffffffffffffffffffffffffff168173ffffffffffffffffffffffffffffffffffffffff167f8be0079c531659141344cd1fd0a4f28419497f9722a3daafe3b4186f6b6457e060405160405180910390a35050565b600073ffffffffffffffffffffffffffffffffffffffff82169050919050565b600061018f82610164565b9050919050565b61019f81610184565b82525050565b60006020820190506101ba6000830184610196565b92915050565b6118b3806101cf6000396000f3fe6080604052600436106100955760003560e01c80638da5cb5b116100595780638da5cb5b146101635780639776aacf1461018e578063a0cf0aea146101b7578063f1a3b943146101e2578063f2fde38b1461020b5761009c565b806333448c93146100a15780633f5cb391146100bd578063536c6bfa146100e6578063715018a61461010f57806372f89493146101265761009c565b3661009c57005b600080fd5b6100bb60048036038101906100b69190611304565b610234565b005b3480156100c957600080fd5b506100e460048036038101906100df919061137f565b610642565b005b3480156100f257600080fd5b5061010d60048036038101906101089190611410565b610832565b005b34801561011b57600080fd5b50610124610982565b005b34801561013257600080fd5b5061014d60048036038101906101489190611450565b610996565b60405161015a91906114dc565b60405180910390f35b34801561016f57600080fd5b506101786109c9565b6040516101859190611506565b60405180910390f35b34801561019a57600080fd5b506101b560048036038101906101b09190611521565b6109f2565b005b3480156101c357600080fd5b506101cc610b93565b6040516101d99190611570565b60405180910390f35b3480156101ee57600080fd5b5061020960048036038101906102049190611450565b610bb7565b005b34801561021757600080fd5b50610232600480360381019061022d919061158b565b610cbe565b005b61023c610d44565b60008203610276576040517f941382a400000000000000000000000000000000000000000000000000000000815260040160405180910390fd5b600073ffffffffffffffffffffffffffffffffffffffff168373ffffffffffffffffffffffffffffffffffffffff16036102dc576040517fe6c4247b00000000000000000000000000000000000000000000000000000000815260040160405180910390fd5b7ffdae1ba7c826abdc4c99903c8056f82a1a04a615c94c895c32d24a82e8ecf7cd84036103f6576000818361031191906115e7565b905080341461034c576040517fcfc6aa0800000000000000000000000000000000000000000000000000000000815260040160405180910390fd5b60008473ffffffffffffffffffffffffffffffffffffffff16846040516103729061164c565b60006040518083038185875af1925050503d80600081146103af576040519150601f19603f3d011682016040523d82523d6000602084013e6103b4565b606091505b50509050806103ef576040517f90b8ec1800000000000000000000000000000000000000000000000000000000815260040160405180910390fd5b50506105c9565b60006002600086815260200190815260200160002060009054906101000a900473ffffffffffffffffffffffffffffffffffffffff169050600073ffffffffffffffffffffffffffffffffffffffff168173ffffffffffffffffffffffffffffffffffffffff1603610494576040517f259ba1ad00000000000000000000000000000000000000000000000000000000815260040160405180910390fd5b600082846104a291906115e7565b905060008273ffffffffffffffffffffffffffffffffffffffff1663dd62ed3e33306040518363ffffffff1660e01b81526004016104e1929190611661565b602060405180830381865afa1580156104fe573d6000803e3d6000fd5b505050506040513d601f19601f82011682018060405250810190610522919061169f565b90508181101561056b5781816040517f2a1b2dd80000000000000000000000000000000000000000000000000000000081526004016105629291906116db565b60405180910390fd5b6105983387878673ffffffffffffffffffffffffffffffffffffffff16610d8a909392919063ffffffff16565b6105c53330868673ffffffffffffffffffffffffffffffffffffffff16610d8a909392919063ffffffff16565b5050505b3373ffffffffffffffffffffffffffffffffffffffff168373ffffffffffffffffffffffffffffffffffffffff16867fdbfcbfd479507be0371d01872cf2b720f26768da4eed6875dc71eb5cf56b9a6287868660405161062b93929190611704565b60405180910390a461063b610e0c565b5050505050565b61064a610e15565b600073ffffffffffffffffffffffffffffffffffffffff168273ffffffffffffffffffffffffffffffffffffffff16036106b0576040517fe6c4247b00000000000000000000000000000000000000000000000000000000815260040160405180910390fd5b60006002600085815260200190815260200160002060009054906101000a900473ffffffffffffffffffffffffffffffffffffffff169050600073ffffffffffffffffffffffffffffffffffffffff168173ffffffffffffffffffffffffffffffffffffffff160361074e576040517f259ba1ad00000000000000000000000000000000000000000000000000000000815260040160405180910390fd5b818173ffffffffffffffffffffffffffffffffffffffff166370a08231306040518263ffffffff1660e01b81526004016107889190611506565b602060405180830381865afa1580156107a5573d6000803e3d6000fd5b505050506040513d601f19601f820116820180604052508101906107c9919061169f565b1015610801576040517ff4d678b800000000000000000000000000000000000000000000000000000000815260040160405180910390fd5b61082c83838373ffffffffffffffffffffffffffffffffffffffff16610e9c9092919063ffffffff16565b50505050565b61083a610e15565b600073ffffffffffffffffffffffffffffffffffffffff168273ffffffffffffffffffffffffffffffffffffffff16036108a0576040517fe6c4247b00000000000000000000000000000000000000000000000000000000815260040160405180910390fd5b804710156108da576040517ff4d678b800000000000000000000000000000000000000000000000000000000815260040160405180910390fd5b60008273ffffffffffffffffffffffffffffffffffffffff16826040516109009061164c565b60006040518083038185875af1925050503d806000811461093d576040519150601f19603f3d011682016040523d82523d6000602084013e610942565b606091505b505090508061097d576040517f90b8ec1800000000000000000000000000000000000000000000000000000000815260040160405180910390fd5b505050565b61098a610e15565b6109946000610f1b565b565b60026020528060005260406000206000915054906101000a900473ffffffffffffffffffffffffffffffffffffffff1681565b60008060009054906101000a900473ffffffffffffffffffffffffffffffffffffffff16905090565b6109fa610e15565b600073ffffffffffffffffffffffffffffffffffffffff168173ffffffffffffffffffffffffffffffffffffffff1603610a60576040517fe6c4247b00000000000000000000000000000000000000000000000000000000815260040160405180910390fd5b600073ffffffffffffffffffffffffffffffffffffffff166002600084815260200190815260200160002060009054906101000a900473ffffffffffffffffffffffffffffffffffffffff1673ffffffffffffffffffffffffffffffffffffffff1614610af9576040517f7d4fffb200000000000000000000000000000000000000000000000000000000815260040160405180910390fd5b806002600084815260200190815260200160002060006101000a81548173ffffffffffffffffffffffffffffffffffffffff021916908373ffffffffffffffffffffffffffffffffffffffff1602179055508073ffffffffffffffffffffffffffffffffffffffff16827f662cc3305b9b4ea3a5fd06717cdaece79b6ac0a7734fd44eabe0f37951dc587c60405160405180910390a35050565b7ffdae1ba7c826abdc4c99903c8056f82a1a04a615c94c895c32d24a82e8ecf7cd81565b610bbf610e15565b600073ffffffffffffffffffffffffffffffffffffffff166002600083815260200190815260200160002060009054906101000a900473ffffffffffffffffffffffffffffffffffffffff1673ffffffffffffffffffffffffffffffffffffffff1603610c58576040517f259ba1ad00000000000000000000000000000000000000000000000000000000815260040160405180910390fd5b807f27b51627532fe8cd0df946e5a9590efb06cc367d3d611c1e4084c7e1dccb3ab460405160405180910390a26002600082815260200190815260200160002060006101000a81549073ffffffffffffffffffffffffffffffffffffffff021916905550565b610cc6610e15565b600073ffffffffffffffffffffffffffffffffffffffff168173ffffffffffffffffffffffffffffffffffffffff1603610d385760006040517f1e4fbdf7000000000000000000000000000000000000000000000000000000008152600401610d2f9190611506565b60405180910390fd5b610d4181610f1b565b50565b600260015403610d80576040517f3ee5aeb500000000000000000000000000000000000000000000000000000000815260040160405180910390fd5b6002600181905550565b610e06848573ffffffffffffffffffffffffffffffffffffffff166323b872dd868686604051602401610dbf9392919061173b565b604051602081830303815290604052915060e01b6020820180517bffffffffffffffffffffffffffffffffffffffffffffffffffffffff8381831617835250505050610fdf565b50505050565b60018081905550565b610e1d611076565b73ffffffffffffffffffffffffffffffffffffffff16610e3b6109c9565b73ffffffffffffffffffffffffffffffffffffffff1614610e9a57610e5e611076565b6040517f118cdaa7000000000000000000000000000000000000000000000000000000008152600401610e919190611506565b60405180910390fd5b565b610f16838473ffffffffffffffffffffffffffffffffffffffff1663a9059cbb8585604051602401610ecf929190611772565b604051602081830303815290604052915060e01b6020820180517bffffffffffffffffffffffffffffffffffffffffffffffffffffffff8381831617835250505050610fdf565b505050565b60008060009054906101000a900473ffffffffffffffffffffffffffffffffffffffff169050816000806101000a81548173ffffffffffffffffffffffffffffffffffffffff021916908373ffffffffffffffffffffffffffffffffffffffff1602179055508173ffffffffffffffffffffffffffffffffffffffff168173ffffffffffffffffffffffffffffffffffffffff167f8be0079c531659141344cd1fd0a4f28419497f9722a3daafe3b4186f6b6457e060405160405180910390a35050565b600061100a828473ffffffffffffffffffffffffffffffffffffffff1661107e90919063ffffffff16565b9050600081511415801561102f57508080602001905181019061102d91906117d3565b155b1561107157826040517f5274afe70000000000000000000000000000000000000000000000000000000081526004016110689190611506565b60405180910390fd5b505050565b600033905090565b606061108c83836000611094565b905092915050565b6060814710156110db57306040517fcd7860590000000000000000000000000000000000000000000000000000000081526004016110d29190611506565b60405180910390fd5b6000808573ffffffffffffffffffffffffffffffffffffffff1684866040516111049190611866565b60006040518083038185875af1925050503d8060008114611141576040519150601f19603f3d011682016040523d82523d6000602084013e611146565b606091505b5091509150611156868383611161565b925050509392505050565b60608261117657611171826111f0565b6111e8565b6000825114801561119e575060008473ffffffffffffffffffffffffffffffffffffffff163b145b156111e057836040517f9996b3150000000000000000000000000000000000000000000000000000000081526004016111d79190611506565b60405180910390fd5b8190506111e9565b5b9392505050565b6000815111156112035780518082602001fd5b6040517f1425ea4200000000000000000000000000000000000000000000000000000000815260040160405180910390fd5b600080fd5b6000819050919050565b61124d8161123a565b811461125857600080fd5b50565b60008135905061126a81611244565b92915050565b6000819050919050565b61128381611270565b811461128e57600080fd5b50565b6000813590506112a08161127a565b92915050565b600073ffffffffffffffffffffffffffffffffffffffff82169050919050565b60006112d1826112a6565b9050919050565b6112e1816112c6565b81146112ec57600080fd5b50565b6000813590506112fe816112d8565b92915050565b600080600080600060a086880312156113205761131f611235565b5b600061132e8882890161125b565b955050602061133f88828901611291565b9450506040611350888289016112ef565b93505060606113618882890161125b565b92505060806113728882890161125b565b9150509295509295909350565b60008060006060848603121561139857611397611235565b5b60006113a686828701611291565b93505060206113b7868287016112ef565b92505060406113c88682870161125b565b9150509250925092565b60006113dd826112a6565b9050919050565b6113ed816113d2565b81146113f857600080fd5b50565b60008135905061140a816113e4565b92915050565b6000806040838503121561142757611426611235565b5b6000611435858286016113fb565b92505060206114468582860161125b565b9150509250929050565b60006020828403121561146657611465611235565b5b600061147484828501611291565b91505092915050565b6000819050919050565b60006114a261149d611498846112a6565b61147d565b6112a6565b9050919050565b60006114b482611487565b9050919050565b60006114c6826114a9565b9050919050565b6114d6816114bb565b82525050565b60006020820190506114f160008301846114cd565b92915050565b611500816112c6565b82525050565b600060208201905061151b60008301846114f7565b92915050565b6000806040838503121561153857611537611235565b5b600061154685828601611291565b9250506020611557858286016112ef565b9150509250929050565b61156a81611270565b82525050565b60006020820190506115856000830184611561565b92915050565b6000602082840312156115a1576115a0611235565b5b60006115af848285016112ef565b91505092915050565b7f4e487b7100000000000000000000000000000000000000000000000000000000600052601160045260246000fd5b60006115f28261123a565b91506115fd8361123a565b9250828201905080821115611615576116146115b8565b5b92915050565b600081905092915050565b50565b600061163660008361161b565b915061164182611626565b600082019050919050565b600061165782611629565b9150819050919050565b600060408201905061167660008301856114f7565b61168360208301846114f7565b9392505050565b60008151905061169981611244565b92915050565b6000602082840312156116b5576116b4611235565b5b60006116c38482850161168a565b91505092915050565b6116d58161123a565b82525050565b60006040820190506116f060008301856116cc565b6116fd60208301846116cc565b9392505050565b60006060820190506117196000830186611561565b61172660208301856116cc565b61173360408301846116cc565b949350505050565b600060608201905061175060008301866114f7565b61175d60208301856114f7565b61176a60408301846116cc565b949350505050565b600060408201905061178760008301856114f7565b61179460208301846116cc565b9392505050565b60008115159050919050565b6117b08161179b565b81146117bb57600080fd5b50565b6000815190506117cd816117a7565b92915050565b6000602082840312156117e9576117e8611235565b5b60006117f7848285016117be565b91505092915050565b600081519050919050565b60005b8381101561182957808201518184015260208101905061180e565b60008484015250505050565b600061184082611800565b61184a818561161b565b935061185a81856020860161180b565b80840191505092915050565b60006118728284611835565b91508190509291505056fea26469706673582212204aa46f183d9f7f08f68bd3c0b4dcd82c80420dfa3593aaa7c39a2a2a1eec619d64736f6c634300081c0033",
  "linkReferences": {},
  "deployedLinkReferences": {}
}