{
  "contracts/Donation.sol": {
    "Donation": {
      "abi": [
        {
          "inputs": [],
          "stateMutability": "nonpayable",
          "type": "constructor"
        },
        {
          "inputs": [
            {
              "internalType": "address",
              "name": "target",
              "type": "address"
            }
          ],
          "name": "AddressEmptyCode",
          "type": "error"
        },
        {
          "inputs": [
            {
              "internalType": "address",
              "name": "account",
              "type": "address"
            }
          ],
          "name": "AddressInsufficientBalance",
          "type": "error"
        },
        {
          "inputs": [],
          "name": "DonationAmountTooLow",
          "type": "error"
        },
        {
          "inputs": [],
          "name": "FailedInnerCall",
          "type": "error"
        },
        {
          "inputs": [
            {
              "internalType": "uint256",
              "name": "required",
              "type": "uint256"
            },
            {
              "internalType": "uint256",
              "name": "available",
              "type": "uint256"
            }
          ],
          "name": "InsufficientAllowance",
          "type": "error"
        },
        {
          "inputs": [],
          "name": "InsufficientBalance",
          "type": "error"
        },
        {
          "inputs": [],
          "name": "InvalidAddress",
          "type": "error"
        },
        {
          "inputs": [
            {
              "internalType": "address",
              "name": "owner",
              "type": "address"
            }
          ],
          "name": "OwnableInvalidOwner",
          "type": "error"
        },
        {
          "inputs": [
            {
              "internalType": "address",
              "name": "account",
              "type": "address"
            }
          ],
          "name": "OwnableUnauthorizedAccount",
          "type": "error"
        },
        {
          "inputs": [],
          "name": "ReentrancyGuardReentrantCall",
          "type": "error"
        },
        {
          "inputs": [
            {
              "internalType": "address",
              "name": "token",
              "type": "address"
            }
          ],
          "name": "SafeERC20FailedOperation",
          "type": "error"
        },
        {
          "inputs": [],
          "name": "TokenAlreadyRegistered",
          "type": "error"
        },
        {
          "inputs": [],
          "name": "TokenNotRegistered",
          "type": "error"
        },
        {
          "inputs": [],
          "name": "TransferFailed",
          "type": "error"
        },
        {
          "inputs": [],
          "name": "ValueDoesNotMatch",
          "type": "error"
        },
        {
          "anonymous": false,
          "inputs": [
            {
              "indexed": true,
              "internalType": "uint256",
              "name": "storyId",
              "type": "uint256"
            },
            {
              "indexed": true,
              "internalType": "address",
              "name": "receiver",
              "type": "address"
            },
            {
              "indexed": true,
              "internalType": "address",
              "name": "sender",
              "type": "address"
            },
            {
              "indexed": false,
              "internalType": "bytes32",
              "name": "tokenSymbol",
              "type": "bytes32"
            },
            {
              "indexed": false,
              "internalType": "uint256",
              "name": "grossAmount",
              "type": "uint256"
            },
            {
              "indexed": false,
              "internalType": "uint256",
              "name": "serviceTips",
              "type": "uint256"
            }
          ],
          "name": "DonationMade",
          "type": "event"
        },
        {
          "anonymous": false,
          "inputs": [
            {
              "indexed": true,
              "internalType": "address",
              "name": "previousOwner",
              "type": "address"
            },
            {
              "indexed": true,
              "internalType": "address",
              "name": "newOwner",
              "type": "address"
            }
          ],
          "name": "OwnershipTransferred",
          "type": "event"
        },
        {
          "anonymous": false,
          "inputs": [
            {
              "indexed": true,
              "internalType": "bytes32",
              "name": "symbol",
              "type": "bytes32"
            },
            {
              "indexed": true,
              "internalType": "address",
              "name": "tokenAddress",
              "type": "address"
            }
          ],
          "name": "TokenAdded",
          "type": "event"
        },
        {
          "anonymous": false,
          "inputs": [
            {
              "indexed": true,
              "internalType": "bytes32",
              "name": "symbol",
              "type": "bytes32"
            }
          ],
          "name": "TokenRemoved",
          "type": "event"
        },
        {
          "inputs": [],
          "name": "NATIVE",
          "outputs": [
            {
              "internalType": "bytes32",
              "name": "",
              "type": "bytes32"
            }
          ],
          "stateMutability": "view",
          "type": "function"
        },
        {
          "inputs": [
            {
              "internalType": "bytes32",
              "name": "symbol",
              "type": "bytes32"
            },
            {
              "internalType": "address",
              "name": "tokenAddress",
              "type": "address"
            }
          ],
          "name": "addToken",
          "outputs": [],
          "stateMutability": "nonpayable",
          "type": "function"
        },
        {
          "inputs": [
            {
              "internalType": "bytes32",
              "name": "",
              "type": "bytes32"
            }
          ],
          "name": "allowedTokens",
          "outputs": [
            {
              "internalType": "contract IERC20",
              "name": "",
              "type": "address"
            }
          ],
          "stateMutability": "view",
          "type": "function"
        },
        {
          "inputs": [
            {
              "internalType": "bytes32",
              "name": "symbol",
              "type": "bytes32"
            }
          ],
          "name": "deleteToken",
          "outputs": [],
          "stateMutability": "nonpayable",
          "type": "function"
        },
        {
          "inputs": [
            {
              "internalType": "uint256",
              "name": "storyId",
              "type": "uint256"
            },
            {
              "internalType": "bytes32",
              "name": "symbol",
              "type": "bytes32"
            },
            {
              "internalType": "address",
              "name": "receiver",
              "type": "address"
            },
            {
              "internalType": "uint256",
              "name": "amount",
              "type": "uint256"
            },
            {
              "internalType": "uint256",
              "name": "tips",
              "type": "uint256"
            }
          ],
          "name": "donate",
          "outputs": [],
          "stateMutability": "payable",
          "type": "function"
        },
        {
          "inputs": [],
          "name": "owner",
          "outputs": [
            {
              "internalType": "address",
              "name": "",
              "type": "address"
            }
          ],
          "stateMutability": "view",
          "type": "function"
        },
        {
          "inputs": [],
          "name": "renounceOwnership",
          "outputs": [],
          "stateMutability": "nonpayable",
          "type": "function"
        },
        {
          "inputs": [
            {
              "internalType": "address",
              "name": "newOwner",
              "type": "address"
            }
          ],
          "name": "transferOwnership",
          "outputs": [],
          "stateMutability": "nonpayable",
          "type": "function"
        },
        {
          "inputs": [
            {
              "internalType": "address payable",
              "name": "to",
              "type": "address"
            },
            {
              "internalType": "uint256",
              "name": "amount",
              "type": "uint256"
            }
          ],
          "name": "withdrawNativeToken",
          "outputs": [],
          "stateMutability": "nonpayable",
          "type": "function"
        },
        {
          "inputs": [
            {
              "internalType": "bytes32",
              "name": "symbol",
              "type": "bytes32"
            },
            {
              "internalType": "address",
              "name": "to",
              "type": "address"
            },
            {
              "internalType": "uint256",
              "name": "amount",
              "type": "uint256"
            }
          ],
          "name": "withdrawToken",
          "outputs": [],
          "stateMutability": "nonpayable",
          "type": "function"
        },
        {
          "stateMutability": "payable",
          "type": "receive"
        }
      ],
      "evm": {
        "bytecode": {
          "linkReferences": {},
          "object": "608060405234801561001057600080fd5b5033600073ffffffffffffffffffffffffffffffffffffffff168173ffffffffffffffffffffffffffffffffffffffff16036100845760006040517f1e4fbdf700000000000000000000000000000000000000000000000000000000815260040161007b91906101a5565b60405180910390fd5b610093816100a060201b60201c565b50600180819055506101c0565b60008060009054906101000a900473ffffffffffffffffffffffffffffffffffffffff169050816000806101000a81548173ffffffffffffffffffffffffffffffffffffffff021916908373ffffffffffffffffffffffffffffffffffffffff1602179055508173ffffffffffffffffffffffffffffffffffffffff168173ffffffffffffffffffffffffffffffffffffffff167f8be0079c531659141344cd1fd0a4f28419497f9722a3daafe3b4186f6b6457e060405160405180910390a35050565b600073ffffffffffffffffffffffffffffffffffffffff82169050919050565b600061018f82610164565b9050919050565b61019f81610184565b82525050565b60006020820190506101ba6000830184610196565b92915050565b6118b3806101cf6000396000f3fe6080604052600436106100955760003560e01c80638da5cb5b116100595780638da5cb5b146101635780639776aacf1461018e578063a0cf0aea146101b7578063f1a3b943146101e2578063f2fde38b1461020b5761009c565b806333448c93146100a15780633f5cb391146100bd578063536c6bfa146100e6578063715018a61461010f57806372f89493146101265761009c565b3661009c57005b600080fd5b6100bb60048036038101906100b69190611304565b610234565b005b3480156100c957600080fd5b506100e460048036038101906100df919061137f565b610642565b005b3480156100f257600080fd5b5061010d60048036038101906101089190611410565b610832565b005b34801561011b57600080fd5b50610124610982565b005b34801561013257600080fd5b5061014d60048036038101906101489190611450565b610996565b60405161015a91906114dc565b60405180910390f35b34801561016f57600080fd5b506101786109c9565b6040516101859190611506565b60405180910390f35b34801561019a57600080fd5b506101b560048036038101906101b09190611521565b6109f2565b005b3480156101c357600080fd5b506101cc610b93565b6040516101d99190611570565b60405180910390f35b3480156101ee57600080fd5b5061020960048036038101906102049190611450565b610bb7565b005b34801561021757600080fd5b50610232600480360381019061022d919061158b565b610cbe565b005b61023c610d44565b60008203610276576040517f941382a400000000000000000000000000000000000000000000000000000000815260040160405180910390fd5b600073ffffffffffffffffffffffffffffffffffffffff168373ffffffffffffffffffffffffffffffffffffffff16036102dc576040517fe6c4247b00000000000000000000000000000000000000000000000000000000815260040160405180910390fd5b7ffdae1ba7c826abdc4c99903c8056f82a1a04a615c94c895c32d24a82e8ecf7cd84036103f6576000818361031191906115e7565b905080341461034c576040517fcfc6aa0800000000000000000000000000000000000000000000000000000000815260040160405180910390fd5b60008473ffffffffffffffffffffffffffffffffffffffff16846040516103729061164c565b60006040518083038185875af1925050503d80600081146103af576040519150601f19603f3d011682016040523d82523d6000602084013e6103b4565b606091505b50509050806103ef576040517f90b8ec1800000000000000000000000000000000000000000000000000000000815260040160405180910390fd5b50506105c9565b60006002600086815260200190815260200160002060009054906101000a900473ffffffffffffffffffffffffffffffffffffffff169050600073ffffffffffffffffffffffffffffffffffffffff168173ffffffffffffffffffffffffffffffffffffffff1603610494576040517f259ba1ad00000000000000000000000000000000000000000000000000000000815260040160405180910390fd5b600082846104a291906115e7565b905060008273ffffffffffffffffffffffffffffffffffffffff1663dd62ed3e33306040518363ffffffff1660e01b81526004016104e1929190611661565b602060405180830381865afa1580156104fe573d6000803e3d6000fd5b505050506040513d601f19601f82011682018060405250810190610522919061169f565b90508181101561056b5781816040517f2a1b2dd80000000000000000000000000000000000000000000000000000000081526004016105629291906116db565b60405180910390fd5b6105983387878673ffffffffffffffffffffffffffffffffffffffff16610d8a909392919063ffffffff16565b6105c53330868673ffffffffffffffffffffffffffffffffffffffff16610d8a909392919063ffffffff16565b5050505b3373ffffffffffffffffffffffffffffffffffffffff168373ffffffffffffffffffffffffffffffffffffffff16867fdbfcbfd479507be0371d01872cf2b720f26768da4eed6875dc71eb5cf56b9a6287868660405161062b93929190611704565b60405180910390a461063b610e0c565b5050505050565b61064a610e15565b600073ffffffffffffffffffffffffffffffffffffffff168273ffffffffffffffffffffffffffffffffffffffff16036106b0576040517fe6c4247b00000000000000000000000000000000000000000000000000000000815260040160405180910390fd5b60006002600085815260200190815260200160002060009054906101000a900473ffffffffffffffffffffffffffffffffffffffff169050600073ffffffffffffffffffffffffffffffffffffffff168173ffffffffffffffffffffffffffffffffffffffff160361074e576040517f259ba1ad00000000000000000000000000000000000000000000000000000000815260040160405180910390fd5b818173ffffffffffffffffffffffffffffffffffffffff166370a08231306040518263ffffffff1660e01b81526004016107889190611506565b602060405180830381865afa1580156107a5573d6000803e3d6000fd5b505050506040513d601f19601f820116820180604052508101906107c9919061169f565b1015610801576040517ff4d678b800000000000000000000000000000000000000000000000000000000815260040160405180910390fd5b61082c83838373ffffffffffffffffffffffffffffffffffffffff16610e9c9092919063ffffffff16565b50505050565b61083a610e15565b600073ffffffffffffffffffffffffffffffffffffffff168273ffffffffffffffffffffffffffffffffffffffff16036108a0576040517fe6c4247b00000000000000000000000000000000000000000000000000000000815260040160405180910390fd5b804710156108da576040517ff4d678b800000000000000000000000000000000000000000000000000000000815260040160405180910390fd5b60008273ffffffffffffffffffffffffffffffffffffffff16826040516109009061164c565b60006040518083038185875af1925050503d806000811461093d576040519150601f19603f3d011682016040523d82523d6000602084013e610942565b606091505b505090508061097d576040517f90b8ec1800000000000000000000000000000000000000000000000000000000815260040160405180910390fd5b505050565b61098a610e15565b6109946000610f1b565b565b60026020528060005260406000206000915054906101000a900473ffffffffffffffffffffffffffffffffffffffff1681565b60008060009054906101000a900473ffffffffffffffffffffffffffffffffffffffff16905090565b6109fa610e15565b600073ffffffffffffffffffffffffffffffffffffffff168173ffffffffffffffffffffffffffffffffffffffff1603610a60576040517fe6c4247b00000000000000000000000000000000000000000000000000000000815260040160405180910390fd5b600073ffffffffffffffffffffffffffffffffffffffff166002600084815260200190815260200160002060009054906101000a900473ffffffffffffffffffffffffffffffffffffffff1673ffffffffffffffffffffffffffffffffffffffff1614610af9576040517f7d4fffb200000000000000000000000000000000000000000000000000000000815260040160405180910390fd5b806002600084815260200190815260200160002060006101000a81548173ffffffffffffffffffffffffffffffffffffffff021916908373ffffffffffffffffffffffffffffffffffffffff1602179055508073ffffffffffffffffffffffffffffffffffffffff16827f662cc3305b9b4ea3a5fd06717cdaece79b6ac0a7734fd44eabe0f37951dc587c60405160405180910390a35050565b7ffdae1ba7c826abdc4c99903c8056f82a1a04a615c94c895c32d24a82e8ecf7cd81565b610bbf610e15565b600073ffffffffffffffffffffffffffffffffffffffff166002600083815260200190815260200160002060009054906101000a900473ffffffffffffffffffffffffffffffffffffffff1673ffffffffffffffffffffffffffffffffffffffff1603610c58576040517f259ba1ad00000000000000000000000000000000000000000000000000000000815260040160405180910390fd5b807f27b51627532fe8cd0df946e5a9590efb06cc367d3d611c1e4084c7e1dccb3ab460405160405180910390a26002600082815260200190815260200160002060006101000a81549073ffffffffffffffffffffffffffffffffffffffff021916905550565b610cc6610e15565b600073ffffffffffffffffffffffffffffffffffffffff168173ffffffffffffffffffffffffffffffffffffffff1603610d385760006040517f1e4fbdf7000000000000000000000000000000000000000000000000000000008152600401610d2f9190611506565b60405180910390fd5b610d4181610f1b565b50565b600260015403610d80576040517f3ee5aeb500000000000000000000000000000000000000000000000000000000815260040160405180910390fd5b6002600181905550565b610e06848573ffffffffffffffffffffffffffffffffffffffff166323b872dd868686604051602401610dbf9392919061173b565b604051602081830303815290604052915060e01b6020820180517bffffffffffffffffffffffffffffffffffffffffffffffffffffffff8381831617835250505050610fdf565b50505050565b60018081905550565b610e1d611076565b73ffffffffffffffffffffffffffffffffffffffff16610e3b6109c9565b73ffffffffffffffffffffffffffffffffffffffff1614610e9a57610e5e611076565b6040517f118cdaa7000000000000000000000000000000000000000000000000000000008152600401610e919190611506565b60405180910390fd5b565b610f16838473ffffffffffffffffffffffffffffffffffffffff1663a9059cbb8585604051602401610ecf929190611772565b604051602081830303815290604052915060e01b6020820180517bffffffffffffffffffffffffffffffffffffffffffffffffffffffff8381831617835250505050610fdf565b505050565b60008060009054906101000a900473ffffffffffffffffffffffffffffffffffffffff169050816000806101000a81548173ffffffffffffffffffffffffffffffffffffffff021916908373ffffffffffffffffffffffffffffffffffffffff1602179055508173ffffffffffffffffffffffffffffffffffffffff168173ffffffffffffffffffffffffffffffffffffffff167f8be0079c531659141344cd1fd0a4f28419497f9722a3daafe3b4186f6b6457e060405160405180910390a35050565b600061100a828473ffffffffffffffffffffffffffffffffffffffff1661107e90919063ffffffff16565b9050600081511415801561102f57508080602001905181019061102d91906117d3565b155b1561107157826040517f5274afe70000000000000000000000000000000000000000000000000000000081526004016110689190611506565b60405180910390fd5b505050565b600033905090565b606061108c83836000611094565b905092915050565b6060814710156110db57306040517fcd7860590000000000000000000000000000000000000000000000000000000081526004016110d29190611506565b60405180910390fd5b6000808573ffffffffffffffffffffffffffffffffffffffff1684866040516111049190611866565b60006040518083038185875af1925050503d8060008114611141576040519150601f19603f3d011682016040523d82523d6000602084013e611146565b606091505b5091509150611156868383611161565b925050509392505050565b60608261117657611171826111f0565b6111e8565b6000825114801561119e575060008473ffffffffffffffffffffffffffffffffffffffff163b145b156111e057836040517f9996b3150000000000000000000000000000000000000000000000000000000081526004016111d79190611506565b60405180910390fd5b8190506111e9565b5b9392505050565b6000815111156112035780518082602001fd5b6040517f1425ea4200000000000000000000000000000000000000000000000000000000815260040160405180910390fd5b600080fd5b6000819050919050565b61124d8161123a565b811461125857600080fd5b50565b60008135905061126a81611244565b92915050565b6000819050919050565b61128381611270565b811461128e57600080fd5b50565b6000813590506112a08161127a565b92915050565b600073ffffffffffffffffffffffffffffffffffffffff82169050919050565b60006112d1826112a6565b9050919050565b6112e1816112c6565b81146112ec57600080fd5b50565b6000813590506112fe816112d8565b92915050565b600080600080600060a086880312156113205761131f611235565b5b600061132e8882890161125b565b955050602061133f88828901611291565b9450506040611350888289016112ef565b93505060606113618882890161125b565b92505060806113728882890161125b565b9150509295509295909350565b60008060006060848603121561139857611397611235565b5b60006113a686828701611291565b93505060206113b7868287016112ef565b92505060406113c88682870161125b565b9150509250925092565b60006113dd826112a6565b9050919050565b6113ed816113d2565b81146113f857600080fd5b50565b60008135905061140a816113e4565b92915050565b6000806040838503121561142757611426611235565b5b6000611435858286016113fb565b92505060206114468582860161125b565b9150509250929050565b60006020828403121561146657611465611235565b5b600061147484828501611291565b91505092915050565b6000819050919050565b60006114a261149d611498846112a6565b61147d565b6112a6565b9050919050565b60006114b482611487565b9050919050565b60006114c6826114a9565b9050919050565b6114d6816114bb565b82525050565b60006020820190506114f160008301846114cd565b92915050565b611500816112c6565b82525050565b600060208201905061151b60008301846114f7565b92915050565b6000806040838503121561153857611537611235565b5b600061154685828601611291565b9250506020611557858286016112ef565b9150509250929050565b61156a81611270565b82525050565b60006020820190506115856000830184611561565b92915050565b6000602082840312156115a1576115a0611235565b5b60006115af848285016112ef565b91505092915050565b7f4e487b7100000000000000000000000000000000000000000000000000000000600052601160045260246000fd5b60006115f28261123a565b91506115fd8361123a565b9250828201905080821115611615576116146115b8565b5b92915050565b600081905092915050565b50565b600061163660008361161b565b915061164182611626565b600082019050919050565b600061165782611629565b9150819050919050565b600060408201905061167660008301856114f7565b61168360208301846114f7565b9392505050565b60008151905061169981611244565b92915050565b6000602082840312156116b5576116b4611235565b5b60006116c38482850161168a565b91505092915050565b6116d58161123a565b82525050565b60006040820190506116f060008301856116cc565b6116fd60208301846116cc565b9392505050565b60006060820190506117196000830186611561565b61172660208301856116cc565b61173360408301846116cc565b949350505050565b600060608201905061175060008301866114f7565b61175d60208301856114f7565b61176a60408301846116cc565b949350505050565b600060408201905061178760008301856114f7565b61179460208301846116cc565b9392505050565b60008115159050919050565b6117b08161179b565b81146117bb57600080fd5b50565b6000815190506117cd816117a7565b92915050565b6000602082840312156117e9576117e8611235565b5b60006117f7848285016117be565b91505092915050565b600081519050919050565b60005b8381101561182957808201518184015260208101905061180e565b60008484015250505050565b600061184082611800565b61184a818561161b565b935061185a81856020860161180b565b80840191505092915050565b60006118728284611835565b91508190509291505056fea26469706673582212204aa46f183d9f7f08f68bd3c0b4dcd82c80420dfa3593aaa7c39a2a2a1eec619d64736f6c634300081c0033",
          "opcodes": "PUSH1 0x80 PUSH1 0x40 MSTORE CALLVALUE DUP1 ISZERO PUSH2 0x10 JUMPI PUSH1 0x0 DUP1 REVERT JUMPDEST POP CALLER PUSH1 0x0 PUSH20 0xFFFFFFFFFFFFFFFFFFFFFFFFFFFFFFFFFFFFFFFF AND DUP2 PUSH20 0xFFFFFFFFFFFFFFFFFFFFFFFFFFFFFFFFFFFFFFFF AND SUB PUSH2 0x84 JUMPI PUSH1 0x0 PUSH1 0x40 MLOAD PUSH32 0x1E4FBDF700000000000000000000000000000000000000000000000000000000 DUP2 MSTORE PUSH1 0x4 ADD PUSH2 0x7B SWAP2 SWAP1 PUSH2 0x1A5 JUMP JUMPDEST PUSH1 0x40 MLOAD DUP1 SWAP2 SUB SWAP1 REVERT JUMPDEST PUSH2 0x93 DUP2 PUSH2 0xA0 PUSH1 0x20 SHL PUSH1 0x20 SHR JUMP JUMPDEST POP PUSH1 0x1 DUP1 DUP2 SWAP1 SSTORE POP PUSH2 0x1C0 JUMP JUMPDEST PUSH1 0x0 DUP1 PUSH1 0x0 SWAP1 SLOAD SWAP1 PUSH2 0x100 EXP SWAP1 DIV PUSH20 0xFFFFFFFFFFFFFFFFFFFFFFFFFFFFFFFFFFFFFFFF AND SWAP1 POP DUP2 PUSH1 0x0 DUP1 PUSH2 0x100 EXP DUP2 SLOAD DUP2 PUSH20 0xFFFFFFFFFFFFFFFFFFFFFFFFFFFFFFFFFFFFFFFF MUL NOT AND SWAP1 DUP4 PUSH20 0xFFFFFFFFFFFFFFFFFFFFFFFFFFFFFFFFFFFFFFFF AND MUL OR SWAP1 SSTORE POP DUP2 PUSH20 0xFFFFFFFFFFFFFFFFFFFFFFFFFFFFFFFFFFFFFFFF AND DUP2 PUSH20 0xFFFFFFFFFFFFFFFFFFFFFFFFFFFFFFFFFFFFFFFF AND PUSH32 0x8BE0079C531659141344CD1FD0A4F28419497F9722A3DAAFE3B4186F6B6457E0 PUSH1 0x40 MLOAD PUSH1 0x40 MLOAD DUP1 SWAP2 SUB SWAP1 LOG3 POP POP JUMP JUMPDEST PUSH1 0x0 PUSH20 0xFFFFFFFFFFFFFFFFFFFFFFFFFFFFFFFFFFFFFFFF DUP3 AND SWAP1 POP SWAP2 SWAP1 POP JUMP JUMPDEST PUSH1 0x0 PUSH2 0x18F DUP3 PUSH2 0x164 JUMP JUMPDEST SWAP1 POP SWAP2 SWAP1 POP JUMP JUMPDEST PUSH2 0x19F DUP2 PUSH2 0x184 JUMP JUMPDEST DUP3 MSTORE POP POP JUMP JUMPDEST PUSH1 0x0 PUSH1 0x20 DUP3 ADD SWAP1 POP PUSH2 0x1BA PUSH1 0x0 DUP4 ADD DUP5 PUSH2 0x196 JUMP JUMPDEST SWAP3 SWAP2 POP POP JUMP JUMPDEST PUSH2 0x18B3 DUP1 PUSH2 0x1CF PUSH1 0x0 CODECOPY PUSH1 0x0 RETURN INVALID PUSH1 0x80 PUSH1 0x40 MSTORE PUSH1 0x4 CALLDATASIZE LT PUSH2 0x95 JUMPI PUSH1 0x0 CALLDATALOAD PUSH1 0xE0 SHR DUP1 PUSH4 0x8DA5CB5B GT PUSH2 0x59 JUMPI DUP1 PUSH4 0x8DA5CB5B EQ PUSH2 0x163 JUMPI DUP1 PUSH4 0x9776AACF EQ PUSH2 0x18E JUMPI DUP1 PUSH4 0xA0CF0AEA EQ PUSH2 0x1B7 JUMPI DUP1 PUSH4 0xF1A3B943 EQ PUSH2 0x1E2 JUMPI DUP1 PUSH4 0xF2FDE38B EQ PUSH2 0x20B JUMPI PUSH2 0x9C JUMP JUMPDEST DUP1 PUSH4 0x33448C93 EQ PUSH2 0xA1 JUMPI DUP1 PUSH4 0x3F5CB391 EQ PUSH2 0xBD JUMPI DUP1 PUSH4 0x536C6BFA EQ PUSH2 0xE6 JUMPI DUP1 PUSH4 0x715018A6 EQ PUSH2 0x10F JUMPI DUP1 PUSH4 0x72F89493 EQ PUSH2 0x126 JUMPI PUSH2 0x9C JUMP JUMPDEST CALLDATASIZE PUSH2 0x9C JUMPI STOP JUMPDEST PUSH1 0x0 DUP1 REVERT JUMPDEST PUSH2 0xBB PUSH1 0x4 DUP1 CALLDATASIZE SUB DUP2 ADD SWAP1 PUSH2 0xB6 SWAP2 SWAP1 PUSH2 0x1304 JUMP JUMPDEST PUSH2 0x234 JUMP JUMPDEST STOP JUMPDEST CALLVALUE DUP1 ISZERO PUSH2 0xC9 JUMPI PUSH1 0x0 DUP1 REVERT JUMPDEST POP PUSH2 0xE4 PUSH1 0x4 DUP1 CALLDATASIZE SUB DUP2 ADD SWAP1 PUSH2 0xDF SWAP2 SWAP1 PUSH2 0x137F JUMP JUMPDEST PUSH2 0x642 JUMP JUMPDEST STOP JUMPDEST CALLVALUE DUP1 ISZERO PUSH2 0xF2 JUMPI PUSH1 0x0 DUP1 REVERT JUMPDEST POP PUSH2 0x10D PUSH1 0x4 DUP1 CALLDATASIZE SUB DUP2 ADD SWAP1 PUSH2 0x108 SWAP2 SWAP1 PUSH2 0x1410 JUMP JUMPDEST PUSH2 0x832 JUMP JUMPDEST STOP JUMPDEST CALLVALUE DUP1 ISZERO PUSH2 0x11B JUMPI PUSH1 0x0 DUP1 REVERT JUMPDEST POP PUSH2 0x124 PUSH2 0x982 JUMP JUMPDEST STOP JUMPDEST CALLVALUE DUP1 ISZERO PUSH2 0x132 JUMPI PUSH1 0x0 DUP1 REVERT JUMPDEST POP PUSH2 0x14D PUSH1 0x4 DUP1 CALLDATASIZE SUB DUP2 ADD SWAP1 PUSH2 0x148 SWAP2 SWAP1 PUSH2 0x1450 JUMP JUMPDEST PUSH2 0x996 JUMP JUMPDEST PUSH1 0x40 MLOAD PUSH2 0x15A SWAP2 SWAP1 PUSH2 0x14DC JUMP JUMPDEST PUSH1 0x40 MLOAD DUP1 SWAP2 SUB SWAP1 RETURN JUMPDEST CALLVALUE DUP1 ISZERO PUSH2 0x16F JUMPI PUSH1 0x0 DUP1 REVERT JUMPDEST POP PUSH2 0x178 PUSH2 0x9C9 JUMP JUMPDEST PUSH1 0x40 MLOAD PUSH2 0x185 SWAP2 SWAP1 PUSH2 0x1506 JUMP JUMPDEST PUSH1 0x40 MLOAD DUP1 SWAP2 SUB SWAP1 RETURN JUMPDEST CALLVALUE DUP1 ISZERO PUSH2 0x19A JUMPI PUSH1 0x0 DUP1 REVERT JUMPDEST POP PUSH2 0x1B5 PUSH1 0x4 DUP1 CALLDATASIZE SUB DUP2 ADD SWAP1 PUSH2 0x1B0 SWAP2 SWAP1 PUSH2 0x1521 JUMP JUMPDEST PUSH2 0x9F2 JUMP JUMPDEST STOP JUMPDEST CALLVALUE DUP1 ISZERO PUSH2 0x1C3 JUMPI PUSH1 0x0 DUP1 REVERT JUMPDEST POP PUSH2 0x1CC PUSH2 0xB93 JUMP JUMPDEST PUSH1 0x40 MLOAD PUSH2 0x1D9 SWAP2 SWAP1 PUSH2 0x1570 JUMP JUMPDEST PUSH1 0x40 MLOAD DUP1 SWAP2 SUB SWAP1 RETURN JUMPDEST CALLVALUE DUP1 ISZERO PUSH2 0x1EE JUMPI PUSH1 0x0 DUP1 REVERT JUMPDEST POP PUSH2 0x209 PUSH1 0x4 DUP1 CALLDATASIZE SUB DUP2 ADD SWAP1 PUSH2 0x204 SWAP2 SWAP1 PUSH2 0x1450 JUMP JUMPDEST PUSH2 0xBB7 JUMP JUMPDEST STOP JUMPDEST CALLVALUE DUP1 ISZERO PUSH2 0x217 JUMPI PUSH1 0x0 DUP1 REVERT JUMPDEST POP PUSH2 0x232 PUSH1 0x4 DUP1 CALLDATASIZE SUB DUP2 ADD SWAP1 PUSH2 0x22D SWAP2 SWAP1 PUSH2 0x158B JUMP JUMPDEST PUSH2 0xCBE JUMP JUMPDEST STOP JUMPDEST PUSH2 0x23C PUSH2 0xD44 JUMP JUMPDEST PUSH1 0x0 DUP3 SUB PUSH2 0x276 JUMPI PUSH1 0x40 MLOAD PUSH32 0x941382A400000000000000000000000000000000000000000000000000000000 DUP2 MSTORE PUSH1 0x4 ADD PUSH1 0x40 MLOAD DUP1 SWAP2 SUB SWAP1 REVERT JUMPDEST PUSH1 0x0 PUSH20 0xFFFFFFFFFFFFFFFFFFFFFFFFFFFFFFFFFFFFFFFF AND DUP4 PUSH20 0xFFFFFFFFFFFFFFFFFFFFFFFFFFFFFFFFFFFFFFFF AND SUB PUSH2 0x2DC JUMPI PUSH1 0x40 MLOAD PUSH32 0xE6C4247B00000000000000000000000000000000000000000000000000000000 DUP2 MSTORE PUSH1 0x4 ADD PUSH1 0x40 MLOAD DUP1 SWAP2 SUB SWAP1 REVERT JUMPDEST PUSH32 0xFDAE1BA7C826ABDC4C99903C8056F82A1A04A615C94C895C32D24A82E8ECF7CD DUP5 SUB PUSH2 0x3F6 JUMPI PUSH1 0x0 DUP2 DUP4 PUSH2 0x311 SWAP2 SWAP1 PUSH2 0x15E7 JUMP JUMPDEST SWAP1 POP DUP1 CALLVALUE EQ PUSH2 0x34C JUMPI PUSH1 0x40 MLOAD PUSH32 0xCFC6AA0800000000000000000000000000000000000000000000000000000000 DUP2 MSTORE PUSH1 0x4 ADD PUSH1 0x40 MLOAD DUP1 SWAP2 SUB SWAP1 REVERT JUMPDEST PUSH1 0x0 DUP5 PUSH20 0xFFFFFFFFFFFFFFFFFFFFFFFFFFFFFFFFFFFFFFFF AND DUP5 PUSH1 0x40 MLOAD PUSH2 0x372 SWAP1 PUSH2 0x164C JUMP JUMPDEST PUSH1 0x0 PUSH1 0x40 MLOAD DUP1 DUP4 SUB DUP2 DUP6 DUP8 GAS CALL SWAP3 POP POP POP RETURNDATASIZE DUP1 PUSH1 0x0 DUP2 EQ PUSH2 0x3AF JUMPI PUSH1 0x40 MLOAD SWAP2 POP PUSH1 0x1F NOT PUSH1 0x3F RETURNDATASIZE ADD AND DUP3 ADD PUSH1 0x40 MSTORE RETURNDATASIZE DUP3 MSTORE RETURNDATASIZE PUSH1 0x0 PUSH1 0x20 DUP5 ADD RETURNDATACOPY PUSH2 0x3B4 JUMP JUMPDEST PUSH1 0x60 SWAP2 POP JUMPDEST POP POP SWAP1 POP DUP1 PUSH2 0x3EF JUMPI PUSH1 0x40 MLOAD PUSH32 0x90B8EC1800000000000000000000000000000000000000000000000000000000 DUP2 MSTORE PUSH1 0x4 ADD PUSH1 0x40 MLOAD DUP1 SWAP2 SUB SWAP1 REVERT JUMPDEST POP POP PUSH2 0x5C9 JUMP JUMPDEST PUSH1 0x0 PUSH1 0x2 PUSH1 0x0 DUP7 DUP2 MSTORE PUSH1 0x20 ADD SWAP1 DUP2 MSTORE PUSH1 0x20 ADD PUSH1 0x0 KECCAK256 PUSH1 0x0 SWAP1 SLOAD SWAP1 PUSH2 0x100 EXP SWAP1 DIV PUSH20 0xFFFFFFFFFFFFFFFFFFFFFFFFFFFFFFFFFFFFFFFF AND SWAP1 POP PUSH1 0x0 PUSH20 0xFFFFFFFFFFFFFFFFFFFFFFFFFFFFFFFFFFFFFFFF AND DUP2 PUSH20 0xFFFFFFFFFFFFFFFFFFFFFFFFFFFFFFFFFFFFFFFF AND SUB PUSH2 0x494 JUMPI PUSH1 0x40 MLOAD PUSH32 0x259BA1AD00000000000000000000000000000000000000000000000000000000 DUP2 MSTORE PUSH1 0x4 ADD PUSH1 0x40 MLOAD DUP1 SWAP2 SUB SWAP1 REVERT JUMPDEST PUSH1 0x0 DUP3 DUP5 PUSH2 0x4A2 SWAP2 SWAP1 PUSH2 0x15E7 JUMP JUMPDEST SWAP1 POP PUSH1 0x0 DUP3 PUSH20 0xFFFFFFFFFFFFFFFFFFFFFFFFFFFFFFFFFFFFFFFF AND PUSH4 0xDD62ED3E CALLER ADDRESS PUSH1 0x40 MLOAD DUP4 PUSH4 0xFFFFFFFF AND PUSH1 0xE0 SHL DUP2 MSTORE PUSH1 0x4 ADD PUSH2 0x4E1 SWAP3 SWAP2 SWAP1 PUSH2 0x1661 JUMP JUMPDEST PUSH1 0x20 PUSH1 0x40 MLOAD DUP1 DUP4 SUB DUP2 DUP7 GAS STATICCALL ISZERO DUP1 ISZERO PUSH2 0x4FE JUMPI RETURNDATASIZE PUSH1 0x0 DUP1 RETURNDATACOPY RETURNDATASIZE PUSH1 0x0 REVERT JUMPDEST POP POP POP POP PUSH1 0x40 MLOAD RETURNDATASIZE PUSH1 0x1F NOT PUSH1 0x1F DUP3 ADD AND DUP3 ADD DUP1 PUSH1 0x40 MSTORE POP DUP2 ADD SWAP1 PUSH2 0x522 SWAP2 SWAP1 PUSH2 0x169F JUMP JUMPDEST SWAP1 POP DUP2 DUP2 LT ISZERO PUSH2 0x56B JUMPI DUP2 DUP2 PUSH1 0x40 MLOAD PUSH32 0x2A1B2DD800000000000000000000000000000000000000000000000000000000 DUP2 MSTORE PUSH1 0x4 ADD PUSH2 0x562 SWAP3 SWAP2 SWAP1 PUSH2 0x16DB JUMP JUMPDEST PUSH1 0x40 MLOAD DUP1 SWAP2 SUB SWAP1 REVERT JUMPDEST PUSH2 0x598 CALLER DUP8 DUP8 DUP7 PUSH20 0xFFFFFFFFFFFFFFFFFFFFFFFFFFFFFFFFFFFFFFFF AND PUSH2 0xD8A SWAP1 SWAP4 SWAP3 SWAP2 SWAP1 PUSH4 0xFFFFFFFF AND JUMP JUMPDEST PUSH2 0x5C5 CALLER ADDRESS DUP7 DUP7 PUSH20 0xFFFFFFFFFFFFFFFFFFFFFFFFFFFFFFFFFFFFFFFF AND PUSH2 0xD8A SWAP1 SWAP4 SWAP3 SWAP2 SWAP1 PUSH4 0xFFFFFFFF AND JUMP JUMPDEST POP POP POP JUMPDEST CALLER PUSH20 0xFFFFFFFFFFFFFFFFFFFFFFFFFFFFFFFFFFFFFFFF AND DUP4 PUSH20 0xFFFFFFFFFFFFFFFFFFFFFFFFFFFFFFFFFFFFFFFF AND DUP7 PUSH32 0xDBFCBFD479507BE0371D01872CF2B720F26768DA4EED6875DC71EB5CF56B9A62 DUP8 DUP7 DUP7 PUSH1 0x40 MLOAD PUSH2 0x62B SWAP4 SWAP3 SWAP2 SWAP1 PUSH2 0x1704 JUMP JUMPDEST PUSH1 0x40 MLOAD DUP1 SWAP2 SUB SWAP1 LOG4 PUSH2 0x63B PUSH2 0xE0C JUMP JUMPDEST POP POP POP POP POP JUMP JUMPDEST PUSH2 0x64A PUSH2 0xE15 JUMP JUMPDEST PUSH1 0x0 PUSH20 0xFFFFFFFFFFFFFFFFFFFFFFFFFFFFFFFFFFFFFFFF AND DUP3 PUSH20 0xFFFFFFFFFFFFFFFFFFFFFFFFFFFFFFFFFFFFFFFF AND SUB PUSH2 0x6B0 JUMPI PUSH1 0x40 MLOAD PUSH32 0xE6C4247B00000000000000000000000000000000000000000000000000000000 DUP2 MSTORE PUSH1 0x4 ADD PUSH1 0x40 MLOAD DUP1 SWAP2 SUB SWAP1 REVERT JUMPDEST PUSH1 0x0 PUSH1 0x2 PUSH1 0x0 DUP6 DUP2 MSTORE PUSH1 0x20 ADD SWAP1 DUP2 MSTORE PUSH1 0x20 ADD PUSH1 0x0 KECCAK256 PUSH1 0x0 SWAP1 SLOAD SWAP1 PUSH2 0x100 EXP SWAP1 DIV PUSH20 0xFFFFFFFFFFFFFFFFFFFFFFFFFFFFFFFFFFFFFFFF AND SWAP1 POP PUSH1 0x0 PUSH20 0xFFFFFFFFFFFFFFFFFFFFFFFFFFFFFFFFFFFFFFFF AND DUP2 PUSH20 0xFFFFFFFFFFFFFFFFFFFFFFFFFFFFFFFFFFFFFFFF AND SUB PUSH2 0x74E JUMPI PUSH1 0x40 MLOAD PUSH32 0x259BA1AD00000000000000000000000000000000000000000000000000000000 DUP2 MSTORE PUSH1 0x4 ADD PUSH1 0x40 MLOAD DUP1 SWAP2 SUB SWAP1 REVERT JUMPDEST DUP2 DUP2 PUSH20 0xFFFFFFFFFFFFFFFFFFFFFFFFFFFFFFFFFFFFFFFF AND PUSH4 0x70A08231 ADDRESS PUSH1 0x40 MLOAD DUP3 PUSH4 0xFFFFFFFF AND PUSH1 0xE0 SHL DUP2 MSTORE PUSH1 0x4 ADD PUSH2 0x788 SWAP2 SWAP1 PUSH2 0x1506 JUMP JUMPDEST PUSH1 0x20 PUSH1 0x40 MLOAD DUP1 DUP4 SUB DUP2 DUP7 GAS STATICCALL ISZERO DUP1 ISZERO PUSH2 0x7A5 JUMPI RETURNDATASIZE PUSH1 0x0 DUP1 RETURNDATACOPY RETURNDATASIZE PUSH1 0x0 REVERT JUMPDEST POP POP POP POP PUSH1 0x40 MLOAD RETURNDATASIZE PUSH1 0x1F NOT PUSH1 0x1F DUP3 ADD AND DUP3 ADD DUP1 PUSH1 0x40 MSTORE POP DUP2 ADD SWAP1 PUSH2 0x7C9 SWAP2 SWAP1 PUSH2 0x169F JUMP JUMPDEST LT ISZERO PUSH2 0x801 JUMPI PUSH1 0x40 MLOAD PUSH32 0xF4D678B800000000000000000000000000000000000000000000000000000000 DUP2 MSTORE PUSH1 0x4 ADD PUSH1 0x40 MLOAD DUP1 SWAP2 SUB SWAP1 REVERT JUMPDEST PUSH2 0x82C DUP4 DUP4 DUP4 PUSH20 0xFFFFFFFFFFFFFFFFFFFFFFFFFFFFFFFFFFFFFFFF AND PUSH2 0xE9C SWAP1 SWAP3 SWAP2 SWAP1 PUSH4 0xFFFFFFFF AND JUMP JUMPDEST POP POP POP POP JUMP JUMPDEST PUSH2 0x83A PUSH2 0xE15 JUMP JUMPDEST PUSH1 0x0 PUSH20 0xFFFFFFFFFFFFFFFFFFFFFFFFFFFFFFFFFFFFFFFF AND DUP3 PUSH20 0xFFFFFFFFFFFFFFFFFFFFFFFFFFFFFFFFFFFFFFFF AND SUB PUSH2 0x8A0 JUMPI PUSH1 0x40 MLOAD PUSH32 0xE6C4247B00000000000000000000000000000000000000000000000000000000 DUP2 MSTORE PUSH1 0x4 ADD PUSH1 0x40 MLOAD DUP1 SWAP2 SUB SWAP1 REVERT JUMPDEST DUP1 SELFBALANCE LT ISZERO PUSH2 0x8DA JUMPI PUSH1 0x40 MLOAD PUSH32 0xF4D678B800000000000000000000000000000000000000000000000000000000 DUP2 MSTORE PUSH1 0x4 ADD PUSH1 0x40 MLOAD DUP1 SWAP2 SUB SWAP1 REVERT JUMPDEST PUSH1 0x0 DUP3 PUSH20 0xFFFFFFFFFFFFFFFFFFFFFFFFFFFFFFFFFFFFFFFF AND DUP3 PUSH1 0x40 MLOAD PUSH2 0x900 SWAP1 PUSH2 0x164C JUMP JUMPDEST PUSH1 0x0 PUSH1 0x40 MLOAD DUP1 DUP4 SUB DUP2 DUP6 DUP8 GAS CALL SWAP3 POP POP POP RETURNDATASIZE DUP1 PUSH1 0x0 DUP2 EQ PUSH2 0x93D JUMPI PUSH1 0x40 MLOAD SWAP2 POP PUSH1 0x1F NOT PUSH1 0x3F RETURNDATASIZE ADD AND DUP3 ADD PUSH1 0x40 MSTORE RETURNDATASIZE DUP3 MSTORE RETURNDATASIZE PUSH1 0x0 PUSH1 0x20 DUP5 ADD RETURNDATACOPY PUSH2 0x942 JUMP JUMPDEST PUSH1 0x60 SWAP2 POP JUMPDEST POP POP SWAP1 POP DUP1 PUSH2 0x97D JUMPI PUSH1 0x40 MLOAD PUSH32 0x90B8EC1800000000000000000000000000000000000000000000000000000000 DUP2 MSTORE PUSH1 0x4 ADD PUSH1 0x40 MLOAD DUP1 SWAP2 SUB SWAP1 REVERT JUMPDEST POP POP POP JUMP JUMPDEST PUSH2 0x98A PUSH2 0xE15 JUMP JUMPDEST PUSH2 0x994 PUSH1 0x0 PUSH2 0xF1B JUMP JUMPDEST JUMP JUMPDEST PUSH1 0x2 PUSH1 0x20 MSTORE DUP1 PUSH1 0x0 MSTORE PUSH1 0x40 PUSH1 0x0 KECCAK256 PUSH1 0x0 SWAP2 POP SLOAD SWAP1 PUSH2 0x100 EXP SWAP1 DIV PUSH20 0xFFFFFFFFFFFFFFFFFFFFFFFFFFFFFFFFFFFFFFFF AND DUP2 JUMP JUMPDEST PUSH1 0x0 DUP1 PUSH1 0x0 SWAP1 SLOAD SWAP1 PUSH2 0x100 EXP SWAP1 DIV PUSH20 0xFFFFFFFFFFFFFFFFFFFFFFFFFFFFFFFFFFFFFFFF AND SWAP1 POP SWAP1 JUMP JUMPDEST PUSH2 0x9FA PUSH2 0xE15 JUMP JUMPDEST PUSH1 0x0 PUSH20 0xFFFFFFFFFFFFFFFFFFFFFFFFFFFFFFFFFFFFFFFF AND DUP2 PUSH20 0xFFFFFFFFFFFFFFFFFFFFFFFFFFFFFFFFFFFFFFFF AND SUB PUSH2 0xA60 JUMPI PUSH1 0x40 MLOAD PUSH32 0xE6C4247B00000000000000000000000000000000000000000000000000000000 DUP2 MSTORE PUSH1 0x4 ADD PUSH1 0x40 MLOAD DUP1 SWAP2 SUB SWAP1 REVERT JUMPDEST PUSH1 0x0 PUSH20 0xFFFFFFFFFFFFFFFFFFFFFFFFFFFFFFFFFFFFFFFF AND PUSH1 0x2 PUSH1 0x0 DUP5 DUP2 MSTORE PUSH1 0x20 ADD SWAP1 DUP2 MSTORE PUSH1 0x20 ADD PUSH1 0x0 KECCAK256 PUSH1 0x0 SWAP1 SLOAD SWAP1 PUSH2 0x100 EXP SWAP1 DIV PUSH20 0xFFFFFFFFFFFFFFFFFFFFFFFFFFFFFFFFFFFFFFFF AND PUSH20 0xFFFFFFFFFFFFFFFFFFFFFFFFFFFFFFFFFFFFFFFF AND EQ PUSH2 0xAF9 JUMPI PUSH1 0x40 MLOAD PUSH32 0x7D4FFFB200000000000000000000000000000000000000000000000000000000 DUP2 MSTORE PUSH1 0x4 ADD PUSH1 0x40 MLOAD DUP1 SWAP2 SUB SWAP1 REVERT JUMPDEST DUP1 PUSH1 0x2 PUSH1 0x0 DUP5 DUP2 MSTORE PUSH1 0x20 ADD SWAP1 DUP2 MSTORE PUSH1 0x20 ADD PUSH1 0x0 KECCAK256 PUSH1 0x0 PUSH2 0x100 EXP DUP2 SLOAD DUP2 PUSH20 0xFFFFFFFFFFFFFFFFFFFFFFFFFFFFFFFFFFFFFFFF MUL NOT AND SWAP1 DUP4 PUSH20 0xFFFFFFFFFFFFFFFFFFFFFFFFFFFFFFFFFFFFFFFF AND MUL OR SWAP1 SSTORE POP DUP1 PUSH20 0xFFFFFFFFFFFFFFFFFFFFFFFFFFFFFFFFFFFFFFFF AND DUP3 PUSH32 0x662CC3305B9B4EA3A5FD06717CDAECE79B6AC0A7734FD44EABE0F37951DC587C PUSH1 0x40 MLOAD PUSH1 0x40 MLOAD DUP1 SWAP2 SUB SWAP1 LOG3 POP POP JUMP JUMPDEST PUSH32 0xFDAE1BA7C826ABDC4C99903C8056F82A1A04A615C94C895C32D24A82E8ECF7CD DUP2 JUMP JUMPDEST PUSH2 0xBBF PUSH2 0xE15 JUMP JUMPDEST PUSH1 0x0 PUSH20 0xFFFFFFFFFFFFFFFFFFFFFFFFFFFFFFFFFFFFFFFF AND PUSH1 0x2 PUSH1 0x0 DUP4 DUP2 MSTORE PUSH1 0x20 ADD SWAP1 DUP2 MSTORE PUSH1 0x20 ADD PUSH1 0x0 KECCAK256 PUSH1 0x0 SWAP1 SLOAD SWAP1 PUSH2 0x100 EXP SWAP1 DIV PUSH20 0xFFFFFFFFFFFFFFFFFFFFFFFFFFFFFFFFFFFFFFFF AND PUSH20 0xFFFFFFFFFFFFFFFFFFFFFFFFFFFFFFFFFFFFFFFF AND SUB PUSH2 0xC58 JUMPI PUSH1 0x40 MLOAD PUSH32 0x259BA1AD00000000000000000000000000000000000000000000000000000000 DUP2 MSTORE PUSH1 0x4 ADD PUSH1 0x40 MLOAD DUP1 SWAP2 SUB SWAP1 REVERT JUMPDEST DUP1 PUSH32 0x27B51627532FE8CD0DF946E5A9590EFB06CC367D3D611C1E4084C7E1DCCB3AB4 PUSH1 0x40 MLOAD PUSH1 0x40 MLOAD DUP1 SWAP2 SUB SWAP1 LOG2 PUSH1 0x2 PUSH1 0x0 DUP3 DUP2 MSTORE PUSH1 0x20 ADD SWAP1 DUP2 MSTORE PUSH1 0x20 ADD PUSH1 0x0 KECCAK256 PUSH1 0x0 PUSH2 0x100 EXP DUP2 SLOAD SWAP1 PUSH20 0xFFFFFFFFFFFFFFFFFFFFFFFFFFFFFFFFFFFFFFFF MUL NOT AND SWAP1 SSTORE POP JUMP JUMPDEST PUSH2 0xCC6 PUSH2 0xE15 JUMP JUMPDEST PUSH1 0x0 PUSH20 0xFFFFFFFFFFFFFFFFFFFFFFFFFFFFFFFFFFFFFFFF AND DUP2 PUSH20 0xFFFFFFFFFFFFFFFFFFFFFFFFFFFFFFFFFFFFFFFF AND SUB PUSH2 0xD38 JUMPI PUSH1 0x0 PUSH1 0x40 MLOAD PUSH32 0x1E4FBDF700000000000000000000000000000000000000000000000000000000 DUP2 MSTORE PUSH1 0x4 ADD PUSH2 0xD2F SWAP2 SWAP1 PUSH2 0x1506 JUMP JUMPDEST PUSH1 0x40 MLOAD DUP1 SWAP2 SUB SWAP1 REVERT JUMPDEST PUSH2 0xD41 DUP2 PUSH2 0xF1B JUMP JUMPDEST POP JUMP JUMPDEST PUSH1 0x2 PUSH1 0x1 SLOAD SUB PUSH2 0xD80 JUMPI PUSH1 0x40 MLOAD PUSH32 0x3EE5AEB500000000000000000000000000000000000000000000000000000000 DUP2 MSTORE PUSH1 0x4 ADD PUSH1 0x40 MLOAD DUP1 SWAP2 SUB SWAP1 REVERT JUMPDEST PUSH1 0x2 PUSH1 0x1 DUP2 SWAP1 SSTORE POP JUMP JUMPDEST PUSH2 0xE06 DUP5 DUP6 PUSH20 0xFFFFFFFFFFFFFFFFFFFFFFFFFFFFFFFFFFFFFFFF AND PUSH4 0x23B872DD DUP7 DUP7 DUP7 PUSH1 0x40 MLOAD PUSH1 0x24 ADD PUSH2 0xDBF SWAP4 SWAP3 SWAP2 SWAP1 PUSH2 0x173B JUMP JUMPDEST PUSH1 0x40 MLOAD PUSH1 0x20 DUP2 DUP4 SUB SUB DUP2 MSTORE SWAP1 PUSH1 0x40 MSTORE SWAP2 POP PUSH1 0xE0 SHL PUSH1 0x20 DUP3 ADD DUP1 MLOAD PUSH28 0xFFFFFFFFFFFFFFFFFFFFFFFFFFFFFFFFFFFFFFFFFFFFFFFFFFFFFFFF DUP4 DUP2 DUP4 AND OR DUP4 MSTORE POP POP POP POP PUSH2 0xFDF JUMP JUMPDEST POP POP POP POP JUMP JUMPDEST PUSH1 0x1 DUP1 DUP2 SWAP1 SSTORE POP JUMP JUMPDEST PUSH2 0xE1D PUSH2 0x1076 JUMP JUMPDEST PUSH20 0xFFFFFFFFFFFFFFFFFFFFFFFFFFFFFFFFFFFFFFFF AND PUSH2 0xE3B PUSH2 0x9C9 JUMP JUMPDEST PUSH20 0xFFFFFFFFFFFFFFFFFFFFFFFFFFFFFFFFFFFFFFFF AND EQ PUSH2 0xE9A JUMPI PUSH2 0xE5E PUSH2 0x1076 JUMP JUMPDEST PUSH1 0x40 MLOAD PUSH32 0x118CDAA700000000000000000000000000000000000000000000000000000000 DUP2 MSTORE PUSH1 0x4 ADD PUSH2 0xE91 SWAP2 SWAP1 PUSH2 0x1506 JUMP JUMPDEST PUSH1 0x40 MLOAD DUP1 SWAP2 SUB SWAP1 REVERT JUMPDEST JUMP JUMPDEST PUSH2 0xF16 DUP4 DUP5 PUSH20 0xFFFFFFFFFFFFFFFFFFFFFFFFFFFFFFFFFFFFFFFF AND PUSH4 0xA9059CBB DUP6 DUP6 PUSH1 0x40 MLOAD PUSH1 0x24 ADD PUSH2 0xECF SWAP3 SWAP2 SWAP1 PUSH2 0x1772 JUMP JUMPDEST PUSH1 0x40 MLOAD PUSH1 0x20 DUP2 DUP4 SUB SUB DUP2 MSTORE SWAP1 PUSH1 0x40 MSTORE SWAP2 POP PUSH1 0xE0 SHL PUSH1 0x20 DUP3 ADD DUP1 MLOAD PUSH28 0xFFFFFFFFFFFFFFFFFFFFFFFFFFFFFFFFFFFFFFFFFFFFFFFFFFFFFFFF DUP4 DUP2 DUP4 AND OR DUP4 MSTORE POP POP POP POP PUSH2 0xFDF JUMP JUMPDEST POP POP POP JUMP JUMPDEST PUSH1 0x0 DUP1 PUSH1 0x0 SWAP1 SLOAD SWAP1 PUSH2 0x100 EXP SWAP1 DIV PUSH20 0xFFFFFFFFFFFFFFFFFFFFFFFFFFFFFFFFFFFFFFFF AND SWAP1 POP DUP2 PUSH1 0x0 DUP1 PUSH2 0x100 EXP DUP2 SLOAD DUP2 PUSH20 0xFFFFFFFFFFFFFFFFFFFFFFFFFFFFFFFFFFFFFFFF MUL NOT AND SWAP1 DUP4 PUSH20 0xFFFFFFFFFFFFFFFFFFFFFFFFFFFFFFFFFFFFFFFF AND MUL OR SWAP1 SSTORE POP DUP2 PUSH20 0xFFFFFFFFFFFFFFFFFFFFFFFFFFFFFFFFFFFFFFFF AND DUP2 PUSH20 0xFFFFFFFFFFFFFFFFFFFFFFFFFFFFFFFFFFFFFFFF AND PUSH32 0x8BE0079C531659141344CD1FD0A4F28419497F9722A3DAAFE3B4186F6B6457E0 PUSH1 0x40 MLOAD PUSH1 0x40 MLOAD DUP1 SWAP2 SUB SWAP1 LOG3 POP POP JUMP JUMPDEST PUSH1 0x0 PUSH2 0x100A DUP3 DUP5 PUSH20 0xFFFFFFFFFFFFFFFFFFFFFFFFFFFFFFFFFFFFFFFF AND PUSH2 0x107E SWAP1 SWAP2 SWAP1 PUSH4 0xFFFFFFFF AND JUMP JUMPDEST SWAP1 POP PUSH1 0x0 DUP2 MLOAD EQ ISZERO DUP1 ISZERO PUSH2 0x102F JUMPI POP DUP1 DUP1 PUSH1 0x20 ADD SWAP1 MLOAD DUP2 ADD SWAP1 PUSH2 0x102D SWAP2 SWAP1 PUSH2 0x17D3 JUMP JUMPDEST ISZERO JUMPDEST ISZERO PUSH2 0x1071 JUMPI DUP3 PUSH1 0x40 MLOAD PUSH32 0x5274AFE700000000000000000000000000000000000000000000000000000000 DUP2 MSTORE PUSH1 0x4 ADD PUSH2 0x1068 SWAP2 SWAP1 PUSH2 0x1506 JUMP JUMPDEST PUSH1 0x40 MLOAD DUP1 SWAP2 SUB SWAP1 REVERT JUMPDEST POP POP POP JUMP JUMPDEST PUSH1 0x0 CALLER SWAP1 POP SWAP1 JUMP JUMPDEST PUSH1 0x60 PUSH2 0x108C DUP4 DUP4 PUSH1 0x0 PUSH2 0x1094 JUMP JUMPDEST SWAP1 POP SWAP3 SWAP2 POP POP JUMP JUMPDEST PUSH1 0x60 DUP2 SELFBALANCE LT ISZERO PUSH2 0x10DB JUMPI ADDRESS PUSH1 0x40 MLOAD PUSH32 0xCD78605900000000000000000000000000000000000000000000000000000000 DUP2 MSTORE PUSH1 0x4 ADD PUSH2 0x10D2 SWAP2 SWAP1 PUSH2 0x1506 JUMP JUMPDEST PUSH1 0x40 MLOAD DUP1 SWAP2 SUB SWAP1 REVERT JUMPDEST PUSH1 0x0 DUP1 DUP6 PUSH20 0xFFFFFFFFFFFFFFFFFFFFFFFFFFFFFFFFFFFFFFFF AND DUP5 DUP7 PUSH1 0x40 MLOAD PUSH2 0x1104 SWAP2 SWAP1 PUSH2 0x1866 JUMP JUMPDEST PUSH1 0x0 PUSH1 0x40 MLOAD DUP1 DUP4 SUB DUP2 DUP6 DUP8 GAS CALL SWAP3 POP POP POP RETURNDATASIZE DUP1 PUSH1 0x0 DUP2 EQ PUSH2 0x1141 JUMPI PUSH1 0x40 MLOAD SWAP2 POP PUSH1 0x1F NOT PUSH1 0x3F RETURNDATASIZE ADD AND DUP3 ADD PUSH1 0x40 MSTORE RETURNDATASIZE DUP3 MSTORE RETURNDATASIZE PUSH1 0x0 PUSH1 0x20 DUP5 ADD RETURNDATACOPY PUSH2 0x1146 JUMP JUMPDEST PUSH1 0x60 SWAP2 POP JUMPDEST POP SWAP2 POP SWAP2 POP PUSH2 0x1156 DUP7 DUP4 DUP4 PUSH2 0x1161 JUMP JUMPDEST SWAP3 POP POP POP SWAP4 SWAP3 POP POP POP JUMP JUMPDEST PUSH1 0x60 DUP3 PUSH2 0x1176 JUMPI PUSH2 0x1171 DUP3 PUSH2 0x11F0 JUMP JUMPDEST PUSH2 0x11E8 JUMP JUMPDEST PUSH1 0x0 DUP3 MLOAD EQ DUP1 ISZERO PUSH2 0x119E JUMPI POP PUSH1 0x0 DUP5 PUSH20 0xFFFFFFFFFFFFFFFFFFFFFFFFFFFFFFFFFFFFFFFF AND EXTCODESIZE EQ JUMPDEST ISZERO PUSH2 0x11E0 JUMPI DUP4 PUSH1 0x40 MLOAD PUSH32 0x9996B31500000000000000000000000000000000000000000000000000000000 DUP2 MSTORE PUSH1 0x4 ADD PUSH2 0x11D7 SWAP2 SWAP1 PUSH2 0x1506 JUMP JUMPDEST PUSH1 0x40 MLOAD DUP1 SWAP2 SUB SWAP1 REVERT JUMPDEST DUP2 SWAP1 POP PUSH2 0x11E9 JUMP JUMPDEST JUMPDEST SWAP4 SWAP3 POP POP POP JUMP JUMPDEST PUSH1 0x0 DUP2 MLOAD GT ISZERO PUSH2 0x1203 JUMPI DUP1 MLOAD DUP1 DUP3 PUSH1 0x20 ADD REVERT JUMPDEST PUSH1 0x40 MLOAD PUSH32 0x1425EA4200000000000000000000000000000000000000000000000000000000 DUP2 MSTORE PUSH1 0x4 ADD PUSH1 0x40 MLOAD DUP1 SWAP2 SUB SWAP1 REVERT JUMPDEST PUSH1 0x0 DUP1 REVERT JUMPDEST PUSH1 0x0 DUP2 SWAP1 POP SWAP2 SWAP1 POP JUMP JUMPDEST PUSH2 0x124D DUP2 PUSH2 0x123A JUMP JUMPDEST DUP2 EQ PUSH2 0x1258 JUMPI PUSH1 0x0 DUP1 REVERT JUMPDEST POP JUMP JUMPDEST PUSH1 0x0 DUP2 CALLDATALOAD SWAP1 POP PUSH2 0x126A DUP2 PUSH2 0x1244 JUMP JUMPDEST SWAP3 SWAP2 POP POP JUMP JUMPDEST PUSH1 0x0 DUP2 SWAP1 POP SWAP2 SWAP1 POP JUMP JUMPDEST PUSH2 0x1283 DUP2 PUSH2 0x1270 JUMP JUMPDEST DUP2 EQ PUSH2 0x128E JUMPI PUSH1 0x0 DUP1 REVERT JUMPDEST POP JUMP JUMPDEST PUSH1 0x0 DUP2 CALLDATALOAD SWAP1 POP PUSH2 0x12A0 DUP2 PUSH2 0x127A JUMP JUMPDEST SWAP3 SWAP2 POP POP JUMP JUMPDEST PUSH1 0x0 PUSH20 0xFFFFFFFFFFFFFFFFFFFFFFFFFFFFFFFFFFFFFFFF DUP3 AND SWAP1 POP SWAP2 SWAP1 POP JUMP JUMPDEST PUSH1 0x0 PUSH2 0x12D1 DUP3 PUSH2 0x12A6 JUMP JUMPDEST SWAP1 POP SWAP2 SWAP1 POP JUMP JUMPDEST PUSH2 0x12E1 DUP2 PUSH2 0x12C6 JUMP JUMPDEST DUP2 EQ PUSH2 0x12EC JUMPI PUSH1 0x0 DUP1 REVERT JUMPDEST POP JUMP JUMPDEST PUSH1 0x0 DUP2 CALLDATALOAD SWAP1 POP PUSH2 0x12FE DUP2 PUSH2 0x12D8 JUMP JUMPDEST SWAP3 SWAP2 POP POP JUMP JUMPDEST PUSH1 0x0 DUP1 PUSH1 0x0 DUP1 PUSH1 0x0 PUSH1 0xA0 DUP7 DUP9 SUB SLT ISZERO PUSH2 0x1320 JUMPI PUSH2 0x131F PUSH2 0x1235 JUMP JUMPDEST JUMPDEST PUSH1 0x0 PUSH2 0x132E DUP9 DUP3 DUP10 ADD PUSH2 0x125B JUMP JUMPDEST SWAP6 POP POP PUSH1 0x20 PUSH2 0x133F DUP9 DUP3 DUP10 ADD PUSH2 0x1291 JUMP JUMPDEST SWAP5 POP POP PUSH1 0x40 PUSH2 0x1350 DUP9 DUP3 DUP10 ADD PUSH2 0x12EF JUMP JUMPDEST SWAP4 POP POP PUSH1 0x60 PUSH2 0x1361 DUP9 DUP3 DUP10 ADD PUSH2 0x125B JUMP JUMPDEST SWAP3 POP POP PUSH1 0x80 PUSH2 0x1372 DUP9 DUP3 DUP10 ADD PUSH2 0x125B JUMP JUMPDEST SWAP2 POP POP SWAP3 SWAP6 POP SWAP3 SWAP6 SWAP1 SWAP4 POP JUMP JUMPDEST PUSH1 0x0 DUP1 PUSH1 0x0 PUSH1 0x60 DUP5 DUP7 SUB SLT ISZERO PUSH2 0x1398 JUMPI PUSH2 0x1397 PUSH2 0x1235 JUMP JUMPDEST JUMPDEST PUSH1 0x0 PUSH2 0x13A6 DUP7 DUP3 DUP8 ADD PUSH2 0x1291 JUMP JUMPDEST SWAP4 POP POP PUSH1 0x20 PUSH2 0x13B7 DUP7 DUP3 DUP8 ADD PUSH2 0x12EF JUMP JUMPDEST SWAP3 POP POP PUSH1 0x40 PUSH2 0x13C8 DUP7 DUP3 DUP8 ADD PUSH2 0x125B JUMP JUMPDEST SWAP2 POP POP SWAP3 POP SWAP3 POP SWAP3 JUMP JUMPDEST PUSH1 0x0 PUSH2 0x13DD DUP3 PUSH2 0x12A6 JUMP JUMPDEST SWAP1 POP SWAP2 SWAP1 POP JUMP JUMPDEST PUSH2 0x13ED DUP2 PUSH2 0x13D2 JUMP JUMPDEST DUP2 EQ PUSH2 0x13F8 JUMPI PUSH1 0x0 DUP1 REVERT JUMPDEST POP JUMP JUMPDEST PUSH1 0x0 DUP2 CALLDATALOAD SWAP1 POP PUSH2 0x140A DUP2 PUSH2 0x13E4 JUMP JUMPDEST SWAP3 SWAP2 POP POP JUMP JUMPDEST PUSH1 0x0 DUP1 PUSH1 0x40 DUP4 DUP6 SUB SLT ISZERO PUSH2 0x1427 JUMPI PUSH2 0x1426 PUSH2 0x1235 JUMP JUMPDEST JUMPDEST PUSH1 0x0 PUSH2 0x1435 DUP6 DUP3 DUP7 ADD PUSH2 0x13FB JUMP JUMPDEST SWAP3 POP POP PUSH1 0x20 PUSH2 0x1446 DUP6 DUP3 DUP7 ADD PUSH2 0x125B JUMP JUMPDEST SWAP2 POP POP SWAP3 POP SWAP3 SWAP1 POP JUMP JUMPDEST PUSH1 0x0 PUSH1 0x20 DUP3 DUP5 SUB SLT ISZERO PUSH2 0x1466 JUMPI PUSH2 0x1465 PUSH2 0x1235 JUMP JUMPDEST JUMPDEST PUSH1 0x0 PUSH2 0x1474 DUP5 DUP3 DUP6 ADD PUSH2 0x1291 JUMP JUMPDEST SWAP2 POP POP SWAP3 SWAP2 POP POP JUMP JUMPDEST PUSH1 0x0 DUP2 SWAP1 POP SWAP2 SWAP1 POP JUMP JUMPDEST PUSH1 0x0 PUSH2 0x14A2 PUSH2 0x149D PUSH2 0x1498 DUP5 PUSH2 0x12A6 JUMP JUMPDEST PUSH2 0x147D JUMP JUMPDEST PUSH2 0x12A6 JUMP JUMPDEST SWAP1 POP SWAP2 SWAP1 POP JUMP JUMPDEST PUSH1 0x0 PUSH2 0x14B4 DUP3 PUSH2 0x1487 JUMP JUMPDEST SWAP1 POP SWAP2 SWAP1 POP JUMP JUMPDEST PUSH1 0x0 PUSH2 0x14C6 DUP3 PUSH2 0x14A9 JUMP JUMPDEST SWAP1 POP SWAP2 SWAP1 POP JUMP JUMPDEST PUSH2 0x14D6 DUP2 PUSH2 0x14BB JUMP JUMPDEST DUP3 MSTORE POP POP JUMP JUMPDEST PUSH1 0x0 PUSH1 0x20 DUP3 ADD SWAP1 POP PUSH2 0x14F1 PUSH1 0x0 DUP4 ADD DUP5 PUSH2 0x14CD JUMP JUMPDEST SWAP3 SWAP2 POP POP JUMP JUMPDEST PUSH2 0x1500 DUP2 PUSH2 0x12C6 JUMP JUMPDEST DUP3 MSTORE POP POP JUMP JUMPDEST PUSH1 0x0 PUSH1 0x20 DUP3 ADD SWAP1 POP PUSH2 0x151B PUSH1 0x0 DUP4 ADD DUP5 PUSH2 0x14F7 JUMP JUMPDEST SWAP3 SWAP2 POP POP JUMP JUMPDEST PUSH1 0x0 DUP1 PUSH1 0x40 DUP4 DUP6 SUB SLT ISZERO PUSH2 0x1538 JUMPI PUSH2 0x1537 PUSH2 0x1235 JUMP JUMPDEST JUMPDEST PUSH1 0x0 PUSH2 0x1546 DUP6 DUP3 DUP7 ADD PUSH2 0x1291 JUMP JUMPDEST SWAP3 POP POP PUSH1 0x20 PUSH2 0x1557 DUP6 DUP3 DUP7 ADD PUSH2 0x12EF JUMP JUMPDEST SWAP2 POP POP SWAP3 POP SWAP3 SWAP1 POP JUMP JUMPDEST PUSH2 0x156A DUP2 PUSH2 0x1270 JUMP JUMPDEST DUP3 MSTORE POP POP JUMP JUMPDEST PUSH1 0x0 PUSH1 0x20 DUP3 ADD SWAP1 POP PUSH2 0x1585 PUSH1 0x0 DUP4 ADD DUP5 PUSH2 0x1561 JUMP JUMPDEST SWAP3 SWAP2 POP POP JUMP JUMPDEST PUSH1 0x0 PUSH1 0x20 DUP3 DUP5 SUB SLT ISZERO PUSH2 0x15A1 JUMPI PUSH2 0x15A0 PUSH2 0x1235 JUMP JUMPDEST JUMPDEST PUSH1 0x0 PUSH2 0x15AF DUP5 DUP3 DUP6 ADD PUSH2 0x12EF JUMP JUMPDEST SWAP2 POP POP SWAP3 SWAP2 POP POP JUMP JUMPDEST PUSH32 0x4E487B7100000000000000000000000000000000000000000000000000000000 PUSH1 0x0 MSTORE PUSH1 0x11 PUSH1 0x4 MSTORE PUSH1 0x24 PUSH1 0x0 REVERT JUMPDEST PUSH1 0x0 PUSH2 0x15F2 DUP3 PUSH2 0x123A JUMP JUMPDEST SWAP2 POP PUSH2 0x15FD DUP4 PUSH2 0x123A JUMP JUMPDEST SWAP3 POP DUP3 DUP3 ADD SWAP1 POP DUP1 DUP3 GT ISZERO PUSH2 0x1615 JUMPI PUSH2 0x1614 PUSH2 0x15B8 JUMP JUMPDEST JUMPDEST SWAP3 SWAP2 POP POP JUMP JUMPDEST PUSH1 0x0 DUP2 SWAP1 POP SWAP3 SWAP2 POP POP JUMP JUMPDEST POP JUMP JUMPDEST PUSH1 0x0 PUSH2 0x1636 PUSH1 0x0 DUP4 PUSH2 0x161B JUMP JUMPDEST SWAP2 POP PUSH2 0x1641 DUP3 PUSH2 0x1626 JUMP JUMPDEST PUSH1 0x0 DUP3 ADD SWAP1 POP SWAP2 SWAP1 POP JUMP JUMPDEST PUSH1 0x0 PUSH2 0x1657 DUP3 PUSH2 0x1629 JUMP JUMPDEST SWAP2 POP DUP2 SWAP1 POP SWAP2 SWAP1 POP JUMP JUMPDEST PUSH1 0x0 PUSH1 0x40 DUP3 ADD SWAP1 POP PUSH2 0x1676 PUSH1 0x0 DUP4 ADD DUP6 PUSH2 0x14F7 JUMP JUMPDEST PUSH2 0x1683 PUSH1 0x20 DUP4 ADD DUP5 PUSH2 0x14F7 JUMP JUMPDEST SWAP4 SWAP3 POP POP POP JUMP JUMPDEST PUSH1 0x0 DUP2 MLOAD SWAP1 POP PUSH2 0x1699 DUP2 PUSH2 0x1244 JUMP JUMPDEST SWAP3 SWAP2 POP POP JUMP JUMPDEST PUSH1 0x0 PUSH1 0x20 DUP3 DUP5 SUB SLT ISZERO PUSH2 0x16B5 JUMPI PUSH2 0x16B4 PUSH2 0x1235 JUMP JUMPDEST JUMPDEST PUSH1 0x0 PUSH2 0x16C3 DUP5 DUP3 DUP6 ADD PUSH2 0x168A JUMP JUMPDEST SWAP2 POP POP SWAP3 SWAP2 POP POP JUMP JUMPDEST PUSH2 0x16D5 DUP2 PUSH2 0x123A JUMP JUMPDEST DUP3 MSTORE POP POP JUMP JUMPDEST PUSH1 0x0 PUSH1 0x40 DUP3 ADD SWAP1 POP PUSH2 0x16F0 PUSH1 0x0 DUP4 ADD DUP6 PUSH2 0x16CC JUMP JUMPDEST PUSH2 0x16FD PUSH1 0x20 DUP4 ADD DUP5 PUSH2 0x16CC JUMP JUMPDEST SWAP4 SWAP3 POP POP POP JUMP JUMPDEST PUSH1 0x0 PUSH1 0x60 DUP3 ADD SWAP1 POP PUSH2 0x1719 PUSH1 0x0 DUP4 ADD DUP7 PUSH2 0x1561 JUMP JUMPDEST PUSH2 0x1726 PUSH1 0x20 DUP4 ADD DUP6 PUSH2 0x16CC JUMP JUMPDEST PUSH2 0x1733 PUSH1 0x40 DUP4 ADD DUP5 PUSH2 0x16CC JUMP JUMPDEST SWAP5 SWAP4 POP POP POP POP JUMP JUMPDEST PUSH1 0x0 PUSH1 0x60 DUP3 ADD SWAP1 POP PUSH2 0x1750 PUSH1 0x0 DUP4 ADD DUP7 PUSH2 0x14F7 JUMP JUMPDEST PUSH2 0x175D PUSH1 0x20 DUP4 ADD DUP6 PUSH2 0x14F7 JUMP JUMPDEST PUSH2 0x176A PUSH1 0x40 DUP4 ADD DUP5 PUSH2 0x16CC JUMP JUMPDEST SWAP5 SWAP4 POP POP POP POP JUMP JUMPDEST PUSH1 0x0 PUSH1 0x40 DUP3 ADD SWAP1 POP PUSH2 0x1787 PUSH1 0x0 DUP4 ADD DUP6 PUSH2 0x14F7 JUMP JUMPDEST PUSH2 0x1794 PUSH1 0x20 DUP4 ADD DUP5 PUSH2 0x16CC JUMP JUMPDEST SWAP4 SWAP3 POP POP POP JUMP JUMPDEST PUSH1 0x0 DUP2 ISZERO ISZERO SWAP1 POP SWAP2 SWAP1 POP JUMP JUMPDEST PUSH2 0x17B0 DUP2 PUSH2 0x179B JUMP JUMPDEST DUP2 EQ PUSH2 0x17BB JUMPI PUSH1 0x0 DUP1 REVERT JUMPDEST POP JUMP JUMPDEST PUSH1 0x0 DUP2 MLOAD SWAP1 POP PUSH2 0x17CD DUP2 PUSH2 0x17A7 JUMP JUMPDEST SWAP3 SWAP2 POP POP JUMP JUMPDEST PUSH1 0x0 PUSH1 0x20 DUP3 DUP5 SUB SLT ISZERO PUSH2 0x17E9 JUMPI PUSH2 0x17E8 PUSH2 0x1235 JUMP JUMPDEST JUMPDEST PUSH1 0x0 PUSH2 0x17F7 DUP5 DUP3 DUP6 ADD PUSH2 0x17BE JUMP JUMPDEST SWAP2 POP POP SWAP3 SWAP2 POP POP JUMP JUMPDEST PUSH1 0x0 DUP2 MLOAD SWAP1 POP SWAP2 SWAP1 POP JUMP JUMPDEST PUSH1 0x0 JUMPDEST DUP4 DUP2 LT ISZERO PUSH2 0x1829 JUMPI DUP1 DUP3 ADD MLOAD DUP2 DUP5 ADD MSTORE PUSH1 0x20 DUP2 ADD SWAP1 POP PUSH2 0x180E JUMP JUMPDEST PUSH1 0x0 DUP5 DUP5 ADD MSTORE POP POP POP POP JUMP JUMPDEST PUSH1 0x0 PUSH2 0x1840 DUP3 PUSH2 0x1800 JUMP JUMPDEST PUSH2 0x184A DUP2 DUP6 PUSH2 0x161B JUMP JUMPDEST SWAP4 POP PUSH2 0x185A DUP2 DUP6 PUSH1 0x20 DUP7 ADD PUSH2 0x180B JUMP JUMPDEST DUP1 DUP5 ADD SWAP2 POP POP SWAP3 SWAP2 POP POP JUMP JUMPDEST PUSH1 0x0 PUSH2 0x1872 DUP3 DUP5 PUSH2 0x1835 JUMP JUMPDEST SWAP2 POP DUP2 SWAP1 POP SWAP3 SWAP2 POP POP JUMP INVALID LOG2 PUSH5 0x6970667358 0x22 SLT KECCAK256 BLOBBASEFEE LOG4 PUSH16 0x183D9F7F08F68BD3C0B4DCD82C80420D STATICCALL CALLDATALOAD SWAP4 0xAA 0xA7 0xC3 SWAP11 0x2A 0x2A 0x1E 0xEC PUSH2 0x9D64 PUSH20 0x6F6C634300081C00330000000000000000000000 "
        },
        "methodIdentifiers": {
          "NATIVE()": "a0cf0aea",
          "addToken(bytes32,address)": "9776aacf",
          "allowedTokens(bytes32)": "72f89493",
          "deleteToken(bytes32)": "f1a3b943",
          "donate(uint256,bytes32,address,uint256,uint256)": "33448c93",
          "owner()": "8da5cb5b",
          "renounceOwnership()": "715018a6",
          "transferOwnership(address)": "f2fde38b",
          "withdrawNativeToken(address,uint256)": "536c6bfa",
          "withdrawToken(bytes32,address,uint256)": "3f5cb391"
        }
      }
    }
  }
}